{
	"address": "0xB82Eb03D8a77522300330Cb98E9385CaaDA38329",
	"abi": [
		{
			"inputs": [
				{
					"internalType": "address",
					"name": "initialOwner",
					"type": "address"
				},
				{
					"internalType": "address",
					"name": "axieContractAddress",
					"type": "address"
				},
				{
					"internalType": "address",
					"name": "idAddress",
					"type": "address"
				}
			],
			"stateMutability": "nonpayable",
			"type": "constructor"
		},
		{
			"inputs": [
				{
					"internalType": "address",
					"name": "owner",
					"type": "address"
				}
			],
			"name": "OwnableInvalidOwner",
			"type": "error"
		},
		{
			"inputs": [
				{
					"internalType": "address",
					"name": "account",
					"type": "address"
				}
			],
			"name": "OwnableUnauthorizedAccount",
			"type": "error"
		},
		{
			"anonymous": false,
			"inputs": [
				{
					"indexed": true,
					"internalType": "address",
					"name": "previousOwner",
					"type": "address"
				},
				{
					"indexed": true,
					"internalType": "address",
					"name": "newOwner",
					"type": "address"
				}
			],
			"name": "OwnershipTransferred",
			"type": "event"
		},
		{
			"inputs": [
				{
					"internalType": "address",
					"name": "to",
					"type": "address"
				},
				{
					"internalType": "uint256",
					"name": "axieId",
					"type": "uint256"
				}
			],
			"name": "captureAxie",
			"outputs": [],
			"stateMutability": "nonpayable",
			"type": "function"
		},
		{
			"inputs": [
				{
					"internalType": "address",
					"name": "",
					"type": "address"
				},
				{
					"internalType": "address",
					"name": "",
					"type": "address"
				},
				{
					"internalType": "uint256[]",
					"name": "",
					"type": "uint256[]"
				},
				{
					"internalType": "uint256[]",
					"name": "",
					"type": "uint256[]"
				},
				{
					"internalType": "bytes",
					"name": "",
					"type": "bytes"
				}
			],
			"name": "onERC1155BatchReceived",
			"outputs": [
				{
					"internalType": "bytes4",
					"name": "",
					"type": "bytes4"
				}
			],
			"stateMutability": "nonpayable",
			"type": "function"
		},
		{
			"inputs": [
				{
					"internalType": "address",
					"name": "",
					"type": "address"
				},
				{
					"internalType": "address",
					"name": "",
					"type": "address"
				},
				{
					"internalType": "uint256",
					"name": "",
					"type": "uint256"
				},
				{
					"internalType": "uint256",
					"name": "",
					"type": "uint256"
				},
				{
					"internalType": "bytes",
					"name": "",
					"type": "bytes"
				}
			],
			"name": "onERC1155Received",
			"outputs": [
				{
					"internalType": "bytes4",
					"name": "",
					"type": "bytes4"
				}
			],
			"stateMutability": "nonpayable",
			"type": "function"
		},
		{
			"inputs": [],
			"name": "owner",
			"outputs": [
				{
					"internalType": "address",
					"name": "",
					"type": "address"
				}
			],
			"stateMutability": "view",
			"type": "function"
		},
		{
			"inputs": [],
			"name": "pokieID",
			"outputs": [
				{
					"internalType": "contract PokieID",
					"name": "",
					"type": "address"
				}
			],
			"stateMutability": "view",
			"type": "function"
		},
		{
			"inputs": [],
			"name": "renounceOwnership",
			"outputs": [],
			"stateMutability": "nonpayable",
			"type": "function"
		},
		{
			"inputs": [
				{
					"internalType": "bytes4",
					"name": "interfaceId",
					"type": "bytes4"
				}
			],
			"name": "supportsInterface",
			"outputs": [
				{
					"internalType": "bool",
					"name": "",
					"type": "bool"
				}
			],
			"stateMutability": "view",
			"type": "function"
		},
		{
			"inputs": [
				{
					"internalType": "address",
					"name": "newOwner",
					"type": "address"
				}
			],
			"name": "transferOwnership",
			"outputs": [],
			"stateMutability": "nonpayable",
			"type": "function"
		}
	],
	"transactionHash": "0x39d6f9a962953c25203e49bc266fe14c5c110544ac35cd0ae1118ba8a8fb8fde",
	"args": [
		"0xa4ffee15dc0930eca8e0bac4ed0087db149a682a",
		"0xcaca1c072d26e46686d932686015207fbe08fdb8",
		"0x38e0adEcD34f905446C539e91f3790c110C25f45"
	],
	"numDeployments": 1,
	"solcInputHash": "90bcec00bc26b73b06b14ba669ad685a",
	"bytecode": "0x60806040523480156200001157600080fd5b506040516200101638038062001016833981810160405281019062000037919062000278565b82600073ffffffffffffffffffffffffffffffffffffffff168173ffffffffffffffffffffffffffffffffffffffff1603620000ad5760006040517f1e4fbdf7000000000000000000000000000000000000000000000000000000008152600401620000a49190620002e5565b60405180910390fd5b620000be816200014a60201b60201c565b5081600160006101000a81548173ffffffffffffffffffffffffffffffffffffffff021916908373ffffffffffffffffffffffffffffffffffffffff16021790555080600260006101000a81548173ffffffffffffffffffffffffffffffffffffffff021916908373ffffffffffffffffffffffffffffffffffffffff16021790555050505062000302565b60008060009054906101000a900473ffffffffffffffffffffffffffffffffffffffff169050816000806101000a81548173ffffffffffffffffffffffffffffffffffffffff021916908373ffffffffffffffffffffffffffffffffffffffff1602179055508173ffffffffffffffffffffffffffffffffffffffff168173ffffffffffffffffffffffffffffffffffffffff167f8be0079c531659141344cd1fd0a4f28419497f9722a3daafe3b4186f6b6457e060405160405180910390a35050565b600080fd5b600073ffffffffffffffffffffffffffffffffffffffff82169050919050565b6000620002408262000213565b9050919050565b620002528162000233565b81146200025e57600080fd5b50565b600081519050620002728162000247565b92915050565b6000806000606084860312156200029457620002936200020e565b5b6000620002a48682870162000261565b9350506020620002b78682870162000261565b9250506040620002ca8682870162000261565b9150509250925092565b620002df8162000233565b82525050565b6000602082019050620002fc6000830184620002d4565b92915050565b610d0480620003126000396000f3fe608060405234801561001057600080fd5b50600436106100885760003560e01c8063ad717df71161005b578063ad717df714610103578063bc197c811461011f578063f23a6e611461014f578063f2fde38b1461017f57610088565b806301ffc9a71461008d578063715018a6146100bd5780638a0bf163146100c75780638da5cb5b146100e5575b600080fd5b6100a760048036038101906100a2919061067e565b61019b565b6040516100b491906106c6565b60405180910390f35b6100c5610215565b005b6100cf610229565b6040516100dc9190610760565b60405180910390f35b6100ed61024f565b6040516100fa919061079c565b60405180910390f35b61011d60048036038101906101189190610819565b610278565b005b61013960048036038101906101349190610a67565b6103a5565b6040516101469190610b45565b60405180910390f35b61016960048036038101906101649190610b60565b6103ba565b6040516101769190610b45565b60405180910390f35b61019960048036038101906101949190610bf7565b6103cf565b005b60007f4e2312e0000000000000000000000000000000000000000000000000000000007bffffffffffffffffffffffffffffffffffffffffffffffffffffffff1916827bffffffffffffffffffffffffffffffffffffffffffffffffffffffff1916148061020e575061020d82610455565b5b9050919050565b61021d6104bf565b6102276000610546565b565b600260009054906101000a900473ffffffffffffffffffffffffffffffffffffffff1681565b60008060009054906101000a900473ffffffffffffffffffffffffffffffffffffffff16905090565b6102806104bf565b600160009054906101000a900473ffffffffffffffffffffffffffffffffffffffff1673ffffffffffffffffffffffffffffffffffffffff166342842e0e3084846040518463ffffffff1660e01b81526004016102df93929190610c33565b600060405180830381600087803b1580156102f957600080fd5b505af115801561030d573d6000803e3d6000fd5b50505050600260009054906101000a900473ffffffffffffffffffffffffffffffffffffffff1673ffffffffffffffffffffffffffffffffffffffff1663507cd30f8360fa6040518363ffffffff1660e01b815260040161036f929190610ca5565b600060405180830381600087803b15801561038957600080fd5b505af115801561039d573d6000803e3d6000fd5b505050505050565b600063bc197c8160e01b905095945050505050565b600063f23a6e6160e01b905095945050505050565b6103d76104bf565b600073ffffffffffffffffffffffffffffffffffffffff168173ffffffffffffffffffffffffffffffffffffffff16036104495760006040517f1e4fbdf7000000000000000000000000000000000000000000000000000000008152600401610440919061079c565b60405180910390fd5b61045281610546565b50565b60007f01ffc9a7000000000000000000000000000000000000000000000000000000007bffffffffffffffffffffffffffffffffffffffffffffffffffffffff1916827bffffffffffffffffffffffffffffffffffffffffffffffffffffffff1916149050919050565b6104c761060a565b73ffffffffffffffffffffffffffffffffffffffff166104e561024f565b73ffffffffffffffffffffffffffffffffffffffff16146105445761050861060a565b6040517f118cdaa700000000000000000000000000000000000000000000000000000000815260040161053b919061079c565b60405180910390fd5b565b60008060009054906101000a900473ffffffffffffffffffffffffffffffffffffffff169050816000806101000a81548173ffffffffffffffffffffffffffffffffffffffff021916908373ffffffffffffffffffffffffffffffffffffffff1602179055508173ffffffffffffffffffffffffffffffffffffffff168173ffffffffffffffffffffffffffffffffffffffff167f8be0079c531659141344cd1fd0a4f28419497f9722a3daafe3b4186f6b6457e060405160405180910390a35050565b600033905090565b6000604051905090565b600080fd5b600080fd5b60007fffffffff0000000000000000000000000000000000000000000000000000000082169050919050565b61065b81610626565b811461066657600080fd5b50565b60008135905061067881610652565b92915050565b6000602082840312156106945761069361061c565b5b60006106a284828501610669565b91505092915050565b60008115159050919050565b6106c0816106ab565b82525050565b60006020820190506106db60008301846106b7565b92915050565b600073ffffffffffffffffffffffffffffffffffffffff82169050919050565b6000819050919050565b600061072661072161071c846106e1565b610701565b6106e1565b9050919050565b60006107388261070b565b9050919050565b600061074a8261072d565b9050919050565b61075a8161073f565b82525050565b60006020820190506107756000830184610751565b92915050565b6000610786826106e1565b9050919050565b6107968161077b565b82525050565b60006020820190506107b1600083018461078d565b92915050565b6107c08161077b565b81146107cb57600080fd5b50565b6000813590506107dd816107b7565b92915050565b6000819050919050565b6107f6816107e3565b811461080157600080fd5b50565b600081359050610813816107ed565b92915050565b600080604083850312156108305761082f61061c565b5b600061083e858286016107ce565b925050602061084f85828601610804565b9150509250929050565b600080fd5b6000601f19601f8301169050919050565b7f4e487b7100000000000000000000000000000000000000000000000000000000600052604160045260246000fd5b6108a78261085e565b810181811067ffffffffffffffff821117156108c6576108c561086f565b5b80604052505050565b60006108d9610612565b90506108e5828261089e565b919050565b600067ffffffffffffffff8211156109055761090461086f565b5b602082029050602081019050919050565b600080fd5b600061092e610929846108ea565b6108cf565b9050808382526020820190506020840283018581111561095157610950610916565b5b835b8181101561097a57806109668882610804565b845260208401935050602081019050610953565b5050509392505050565b600082601f83011261099957610998610859565b5b81356109a984826020860161091b565b91505092915050565b600080fd5b600067ffffffffffffffff8211156109d2576109d161086f565b5b6109db8261085e565b9050602081019050919050565b82818337600083830152505050565b6000610a0a610a05846109b7565b6108cf565b905082815260208101848484011115610a2657610a256109b2565b5b610a318482856109e8565b509392505050565b600082601f830112610a4e57610a4d610859565b5b8135610a5e8482602086016109f7565b91505092915050565b600080600080600060a08688031215610a8357610a8261061c565b5b6000610a91888289016107ce565b9550506020610aa2888289016107ce565b945050604086013567ffffffffffffffff811115610ac357610ac2610621565b5b610acf88828901610984565b935050606086013567ffffffffffffffff811115610af057610aef610621565b5b610afc88828901610984565b925050608086013567ffffffffffffffff811115610b1d57610b1c610621565b5b610b2988828901610a39565b9150509295509295909350565b610b3f81610626565b82525050565b6000602082019050610b5a6000830184610b36565b92915050565b600080600080600060a08688031215610b7c57610b7b61061c565b5b6000610b8a888289016107ce565b9550506020610b9b888289016107ce565b9450506040610bac88828901610804565b9350506060610bbd88828901610804565b925050608086013567ffffffffffffffff811115610bde57610bdd610621565b5b610bea88828901610a39565b9150509295509295909350565b600060208284031215610c0d57610c0c61061c565b5b6000610c1b848285016107ce565b91505092915050565b610c2d816107e3565b82525050565b6000606082019050610c48600083018661078d565b610c55602083018561078d565b610c626040830184610c24565b949350505050565b6000819050919050565b6000610c8f610c8a610c8584610c6a565b610701565b6107e3565b9050919050565b610c9f81610c74565b82525050565b6000604082019050610cba600083018561078d565b610cc76020830184610c96565b939250505056fea26469706673582212206a4b68882ec8d399fc43137203ecb467bbe36f1a84bad143497f7ed454f005e164736f6c63430008140033",
	"devdoc": {
		"errors": {
			"OwnableInvalidOwner(address)": [
				{
					"details": "The owner is not a valid owner account. (eg. `address(0)`)"
				}
			],
			"OwnableUnauthorizedAccount(address)": [
				{
					"details": "The caller account is not authorized to perform an operation."
				}
			]
		},
		"kind": "dev",
		"methods": {
			"owner()": {
				"details": "Returns the address of the current owner."
			},
			"renounceOwnership()": {
				"details": "Leaves the contract without owner. It will not be possible to call `onlyOwner` functions. Can only be called by the current owner. NOTE: Renouncing ownership will leave the contract without an owner, thereby disabling any functionality that is only available to the owner."
			},
			"supportsInterface(bytes4)": {
				"details": "See {IERC165-supportsInterface}."
			},
			"transferOwnership(address)": {
				"details": "Transfers ownership of the contract to a new account (`newOwner`). Can only be called by the current owner."
			}
		},
		"version": 1
	},
	"userdoc": {
		"kind": "user",
		"methods": {},
		"version": 1
	},
	"storageLayout": {
		"storage": [
			{
				"astId": 8,
				"contract": "src/contracts/PokieAxie.sol:PokieAxie",
				"label": "_owner",
				"offset": 0,
				"slot": "0",
				"type": "t_address"
			},
			{
				"astId": 5457,
				"contract": "src/contracts/PokieAxie.sol:PokieAxie",
				"label": "_axieContract",
				"offset": 0,
				"slot": "1",
				"type": "t_address"
			},
			{
				"astId": 5460,
				"contract": "src/contracts/PokieAxie.sol:PokieAxie",
				"label": "pokieID",
				"offset": 0,
				"slot": "2",
				"type": "t_contract(PokieID)5951"
			}
		],
		"types": {
			"t_address": {
				"encoding": "inplace",
				"label": "address",
				"numberOfBytes": "20"
			},
			"t_contract(PokieID)5951": {
				"encoding": "inplace",
				"label": "contract PokieID",
				"numberOfBytes": "20"
			}
		}
	}
}