{
	"address": "0x38e0adEcD34f905446C539e91f3790c110C25f45",
	"abi": [
		{
			"inputs": [
				{
					"internalType": "address",
					"name": "initialOwner",
					"type": "address"
				}
			],
			"stateMutability": "nonpayable",
			"type": "constructor"
		},
		{
			"inputs": [
				{
					"internalType": "address",
					"name": "sender",
					"type": "address"
				},
				{
					"internalType": "uint256",
					"name": "tokenId",
					"type": "uint256"
				},
				{
					"internalType": "address",
					"name": "owner",
					"type": "address"
				}
			],
			"name": "ERC721IncorrectOwner",
			"type": "error"
		},
		{
			"inputs": [
				{
					"internalType": "address",
					"name": "operator",
					"type": "address"
				},
				{
					"internalType": "uint256",
					"name": "tokenId",
					"type": "uint256"
				}
			],
			"name": "ERC721InsufficientApproval",
			"type": "error"
		},
		{
			"inputs": [
				{
					"internalType": "address",
					"name": "approver",
					"type": "address"
				}
			],
			"name": "ERC721InvalidApprover",
			"type": "error"
		},
		{
			"inputs": [
				{
					"internalType": "address",
					"name": "operator",
					"type": "address"
				}
			],
			"name": "ERC721InvalidOperator",
			"type": "error"
		},
		{
			"inputs": [
				{
					"internalType": "address",
					"name": "owner",
					"type": "address"
				}
			],
			"name": "ERC721InvalidOwner",
			"type": "error"
		},
		{
			"inputs": [
				{
					"internalType": "address",
					"name": "receiver",
					"type": "address"
				}
			],
			"name": "ERC721InvalidReceiver",
			"type": "error"
		},
		{
			"inputs": [
				{
					"internalType": "address",
					"name": "sender",
					"type": "address"
				}
			],
			"name": "ERC721InvalidSender",
			"type": "error"
		},
		{
			"inputs": [
				{
					"internalType": "uint256",
					"name": "tokenId",
					"type": "uint256"
				}
			],
			"name": "ERC721NonexistentToken",
			"type": "error"
		},
		{
			"inputs": [
				{
					"internalType": "address",
					"name": "owner",
					"type": "address"
				}
			],
			"name": "OwnableInvalidOwner",
			"type": "error"
		},
		{
			"inputs": [
				{
					"internalType": "address",
					"name": "account",
					"type": "address"
				}
			],
			"name": "OwnableUnauthorizedAccount",
			"type": "error"
		},
		{
			"anonymous": false,
			"inputs": [
				{
					"indexed": true,
					"internalType": "address",
					"name": "owner",
					"type": "address"
				},
				{
					"indexed": true,
					"internalType": "address",
					"name": "approved",
					"type": "address"
				},
				{
					"indexed": true,
					"internalType": "uint256",
					"name": "tokenId",
					"type": "uint256"
				}
			],
			"name": "Approval",
			"type": "event"
		},
		{
			"anonymous": false,
			"inputs": [
				{
					"indexed": true,
					"internalType": "address",
					"name": "owner",
					"type": "address"
				},
				{
					"indexed": true,
					"internalType": "address",
					"name": "operator",
					"type": "address"
				},
				{
					"indexed": false,
					"internalType": "bool",
					"name": "approved",
					"type": "bool"
				}
			],
			"name": "ApprovalForAll",
			"type": "event"
		},
		{
			"anonymous": false,
			"inputs": [
				{
					"indexed": true,
					"internalType": "address",
					"name": "to",
					"type": "address"
				},
				{
					"indexed": true,
					"internalType": "uint256",
					"name": "tokenId",
					"type": "uint256"
				}
			],
			"name": "Attest",
			"type": "event"
		},
		{
			"anonymous": false,
			"inputs": [
				{
					"indexed": false,
					"internalType": "uint256",
					"name": "_fromTokenId",
					"type": "uint256"
				},
				{
					"indexed": false,
					"internalType": "uint256",
					"name": "_toTokenId",
					"type": "uint256"
				}
			],
			"name": "BatchMetadataUpdate",
			"type": "event"
		},
		{
			"anonymous": false,
			"inputs": [
				{
					"indexed": false,
					"internalType": "uint256",
					"name": "_tokenId",
					"type": "uint256"
				}
			],
			"name": "MetadataUpdate",
			"type": "event"
		},
		{
			"anonymous": false,
			"inputs": [
				{
					"indexed": true,
					"internalType": "address",
					"name": "previousOwner",
					"type": "address"
				},
				{
					"indexed": true,
					"internalType": "address",
					"name": "newOwner",
					"type": "address"
				}
			],
			"name": "OwnershipTransferred",
			"type": "event"
		},
		{
			"anonymous": false,
			"inputs": [
				{
					"indexed": true,
					"internalType": "address",
					"name": "to",
					"type": "address"
				},
				{
					"indexed": true,
					"internalType": "uint256",
					"name": "tokenId",
					"type": "uint256"
				}
			],
			"name": "Revoke",
			"type": "event"
		},
		{
			"anonymous": false,
			"inputs": [
				{
					"indexed": true,
					"internalType": "address",
					"name": "from",
					"type": "address"
				},
				{
					"indexed": true,
					"internalType": "address",
					"name": "to",
					"type": "address"
				},
				{
					"indexed": true,
					"internalType": "uint256",
					"name": "tokenId",
					"type": "uint256"
				}
			],
			"name": "Transfer",
			"type": "event"
		},
		{
			"inputs": [
				{
					"internalType": "address",
					"name": "_address",
					"type": "address"
				},
				{
					"internalType": "uint256",
					"name": "_points",
					"type": "uint256"
				}
			],
			"name": "addPoints",
			"outputs": [],
			"stateMutability": "nonpayable",
			"type": "function"
		},
		{
			"inputs": [
				{
					"internalType": "address",
					"name": "to",
					"type": "address"
				},
				{
					"internalType": "uint256",
					"name": "tokenId",
					"type": "uint256"
				}
			],
			"name": "approve",
			"outputs": [],
			"stateMutability": "nonpayable",
			"type": "function"
		},
		{
			"inputs": [
				{
					"internalType": "address",
					"name": "",
					"type": "address"
				}
			],
			"name": "attendence",
			"outputs": [
				{
					"internalType": "uint256",
					"name": "",
					"type": "uint256"
				}
			],
			"stateMutability": "view",
			"type": "function"
		},
		{
			"inputs": [
				{
					"internalType": "address",
					"name": "owner",
					"type": "address"
				}
			],
			"name": "balanceOf",
			"outputs": [
				{
					"internalType": "uint256",
					"name": "",
					"type": "uint256"
				}
			],
			"stateMutability": "view",
			"type": "function"
		},
		{
			"inputs": [
				{
					"internalType": "uint256",
					"name": "tokenId",
					"type": "uint256"
				}
			],
			"name": "burn",
			"outputs": [],
			"stateMutability": "nonpayable",
			"type": "function"
		},
		{
			"inputs": [
				{
					"internalType": "uint256",
					"name": "tokenId",
					"type": "uint256"
				}
			],
			"name": "getApproved",
			"outputs": [
				{
					"internalType": "address",
					"name": "",
					"type": "address"
				}
			],
			"stateMutability": "view",
			"type": "function"
		},
		{
			"inputs": [
				{
					"internalType": "address",
					"name": "_address",
					"type": "address"
				}
			],
			"name": "getAttendance",
			"outputs": [
				{
					"internalType": "uint256",
					"name": "",
					"type": "uint256"
				}
			],
			"stateMutability": "view",
			"type": "function"
		},
		{
			"inputs": [
				{
					"internalType": "address",
					"name": "_address",
					"type": "address"
				}
			],
			"name": "getPoint",
			"outputs": [
				{
					"internalType": "uint256",
					"name": "",
					"type": "uint256"
				}
			],
			"stateMutability": "view",
			"type": "function"
		},
		{
			"inputs": [
				{
					"internalType": "address",
					"name": "owner",
					"type": "address"
				},
				{
					"internalType": "address",
					"name": "operator",
					"type": "address"
				}
			],
			"name": "isApprovedForAll",
			"outputs": [
				{
					"internalType": "bool",
					"name": "",
					"type": "bool"
				}
			],
			"stateMutability": "view",
			"type": "function"
		},
		{
			"inputs": [
				{
					"internalType": "address",
					"name": "_address",
					"type": "address"
				}
			],
			"name": "makeAttendance",
			"outputs": [],
			"stateMutability": "nonpayable",
			"type": "function"
		},
		{
			"inputs": [],
			"name": "name",
			"outputs": [
				{
					"internalType": "string",
					"name": "",
					"type": "string"
				}
			],
			"stateMutability": "view",
			"type": "function"
		},
		{
			"inputs": [],
			"name": "owner",
			"outputs": [
				{
					"internalType": "address",
					"name": "",
					"type": "address"
				}
			],
			"stateMutability": "view",
			"type": "function"
		},
		{
			"inputs": [
				{
					"internalType": "uint256",
					"name": "tokenId",
					"type": "uint256"
				}
			],
			"name": "ownerOf",
			"outputs": [
				{
					"internalType": "address",
					"name": "",
					"type": "address"
				}
			],
			"stateMutability": "view",
			"type": "function"
		},
		{
			"inputs": [
				{
					"internalType": "address",
					"name": "",
					"type": "address"
				}
			],
			"name": "points",
			"outputs": [
				{
					"internalType": "uint256",
					"name": "",
					"type": "uint256"
				}
			],
			"stateMutability": "view",
			"type": "function"
		},
		{
			"inputs": [],
			"name": "renounceOwnership",
			"outputs": [],
			"stateMutability": "nonpayable",
			"type": "function"
		},
		{
			"inputs": [
				{
					"internalType": "uint256",
					"name": "tokenId",
					"type": "uint256"
				}
			],
			"name": "revoke",
			"outputs": [],
			"stateMutability": "nonpayable",
			"type": "function"
		},
		{
			"inputs": [
				{
					"internalType": "address",
					"name": "to",
					"type": "address"
				},
				{
					"internalType": "string",
					"name": "uri",
					"type": "string"
				}
			],
			"name": "safeMint",
			"outputs": [],
			"stateMutability": "nonpayable",
			"type": "function"
		},
		{
			"inputs": [
				{
					"internalType": "address",
					"name": "from",
					"type": "address"
				},
				{
					"internalType": "address",
					"name": "to",
					"type": "address"
				},
				{
					"internalType": "uint256",
					"name": "tokenId",
					"type": "uint256"
				}
			],
			"name": "safeTransferFrom",
			"outputs": [],
			"stateMutability": "nonpayable",
			"type": "function"
		},
		{
			"inputs": [
				{
					"internalType": "address",
					"name": "from",
					"type": "address"
				},
				{
					"internalType": "address",
					"name": "to",
					"type": "address"
				},
				{
					"internalType": "uint256",
					"name": "tokenId",
					"type": "uint256"
				},
				{
					"internalType": "bytes",
					"name": "data",
					"type": "bytes"
				}
			],
			"name": "safeTransferFrom",
			"outputs": [],
			"stateMutability": "nonpayable",
			"type": "function"
		},
		{
			"inputs": [
				{
					"internalType": "address",
					"name": "operator",
					"type": "address"
				},
				{
					"internalType": "bool",
					"name": "approved",
					"type": "bool"
				}
			],
			"name": "setApprovalForAll",
			"outputs": [],
			"stateMutability": "nonpayable",
			"type": "function"
		},
		{
			"inputs": [
				{
					"internalType": "bytes4",
					"name": "interfaceId",
					"type": "bytes4"
				}
			],
			"name": "supportsInterface",
			"outputs": [
				{
					"internalType": "bool",
					"name": "",
					"type": "bool"
				}
			],
			"stateMutability": "view",
			"type": "function"
		},
		{
			"inputs": [],
			"name": "symbol",
			"outputs": [
				{
					"internalType": "string",
					"name": "",
					"type": "string"
				}
			],
			"stateMutability": "view",
			"type": "function"
		},
		{
			"inputs": [
				{
					"internalType": "uint256",
					"name": "tokenId",
					"type": "uint256"
				}
			],
			"name": "tokenURI",
			"outputs": [
				{
					"internalType": "string",
					"name": "",
					"type": "string"
				}
			],
			"stateMutability": "view",
			"type": "function"
		},
		{
			"inputs": [
				{
					"internalType": "address",
					"name": "from",
					"type": "address"
				},
				{
					"internalType": "address",
					"name": "to",
					"type": "address"
				},
				{
					"internalType": "uint256",
					"name": "tokenId",
					"type": "uint256"
				}
			],
			"name": "transferFrom",
			"outputs": [],
			"stateMutability": "nonpayable",
			"type": "function"
		},
		{
			"inputs": [
				{
					"internalType": "address",
					"name": "newOwner",
					"type": "address"
				}
			],
			"name": "transferOwnership",
			"outputs": [],
			"stateMutability": "nonpayable",
			"type": "function"
		}
	],
	"transactionHash": "0xe225e869ab217cf14bf4fc89ae3208616b95c85016404def42bcca58366edb38",
	"args": [
		"0xa4ffee15dc0930eca8e0bac4ed0087db149a682a"
	],
	"numDeployments": 1,
	"solcInputHash": "90bcec00bc26b73b06b14ba669ad685a",
	"bytecode": "0x60806040523480156200001157600080fd5b506040516200341938038062003419833981810160405281019062000037919062000288565b806040518060400160405280600781526020017f506f6b69654944000000000000000000000000000000000000000000000000008152506040518060400160405280600481526020017f504b4944000000000000000000000000000000000000000000000000000000008152508160009081620000b5919062000534565b508060019081620000c7919062000534565b505050600073ffffffffffffffffffffffffffffffffffffffff168173ffffffffffffffffffffffffffffffffffffffff16036200013f5760006040517f1e4fbdf70000000000000000000000000000000000000000000000000000000081526004016200013691906200062c565b60405180910390fd5b62000150816200015860201b60201c565b505062000649565b6000600760009054906101000a900473ffffffffffffffffffffffffffffffffffffffff16905081600760006101000a81548173ffffffffffffffffffffffffffffffffffffffff021916908373ffffffffffffffffffffffffffffffffffffffff1602179055508173ffffffffffffffffffffffffffffffffffffffff168173ffffffffffffffffffffffffffffffffffffffff167f8be0079c531659141344cd1fd0a4f28419497f9722a3daafe3b4186f6b6457e060405160405180910390a35050565b600080fd5b600073ffffffffffffffffffffffffffffffffffffffff82169050919050565b6000620002508262000223565b9050919050565b620002628162000243565b81146200026e57600080fd5b50565b600081519050620002828162000257565b92915050565b600060208284031215620002a157620002a06200021e565b5b6000620002b18482850162000271565b91505092915050565b600081519050919050565b7f4e487b7100000000000000000000000000000000000000000000000000000000600052604160045260246000fd5b7f4e487b7100000000000000000000000000000000000000000000000000000000600052602260045260246000fd5b600060028204905060018216806200033c57607f821691505b602082108103620003525762000351620002f4565b5b50919050565b60008190508160005260206000209050919050565b60006020601f8301049050919050565b600082821b905092915050565b600060088302620003bc7fffffffffffffffffffffffffffffffffffffffffffffffffffffffffffffffff826200037d565b620003c886836200037d565b95508019841693508086168417925050509392505050565b6000819050919050565b6000819050919050565b6000620004156200040f6200040984620003e0565b620003ea565b620003e0565b9050919050565b6000819050919050565b6200043183620003f4565b6200044962000440826200041c565b8484546200038a565b825550505050565b600090565b6200046062000451565b6200046d81848462000426565b505050565b5b8181101562000495576200048960008262000456565b60018101905062000473565b5050565b601f821115620004e457620004ae8162000358565b620004b9846200036d565b81016020851015620004c9578190505b620004e1620004d8856200036d565b83018262000472565b50505b505050565b600082821c905092915050565b60006200050960001984600802620004e9565b1980831691505092915050565b6000620005248383620004f6565b9150826002028217905092915050565b6200053f82620002ba565b67ffffffffffffffff8111156200055b576200055a620002c5565b5b62000567825462000323565b6200057482828562000499565b600060209050601f831160018114620005ac576000841562000597578287015190505b620005a3858262000516565b86555062000613565b601f198416620005bc8662000358565b60005b82811015620005e657848901518255600182019150602085019450602081019050620005bf565b8683101562000606578489015162000602601f891682620004f6565b8355505b6001600288020188555050505b505050505050565b620006268162000243565b82525050565b60006020820190506200064360008301846200061b565b92915050565b612dc080620006596000396000f3fe608060405234801561001057600080fd5b50600436106101735760003560e01c80636352211e116100de578063a22cb46511610097578063d204c45e11610071578063d204c45e1461046c578063de70a97b14610488578063e985e9c5146104a4578063f2fde38b146104d457610173565b8063a22cb46514610404578063b88d4fde14610420578063c87b56dd1461043c57610173565b80636352211e1461032e57806370a082311461035e578063715018a61461038e5780638da5cb5b1461039857806395d89b41146103b657806399bceadb146103d457610173565b806323b872dd1161013057806323b872dd1461025e578063358b81661461027a57806342842e0e146102aa57806342966c68146102c65780634ff531b6146102e2578063507cd30f1461031257610173565b806301ffc9a71461017857806305ccf0a5146101a857806306fdde03146101d8578063081812fc146101f6578063095ea7b31461022657806320c5429b14610242575b600080fd5b610192600480360381019061018d91906120e6565b6104f0565b60405161019f919061212e565b60405180910390f35b6101c260048036038101906101bd91906121a7565b610502565b6040516101cf91906121ed565b60405180910390f35b6101e061051a565b6040516101ed9190612298565b60405180910390f35b610210600480360381019061020b91906122e6565b6105ac565b60405161021d9190612322565b60405180910390f35b610240600480360381019061023b919061233d565b6105c8565b005b61025c600480360381019061025791906122e6565b6105de565b005b6102786004803603810190610273919061237d565b610658565b005b610294600480360381019061028f91906121a7565b61075a565b6040516102a191906121ed565b60405180910390f35b6102c460048036038101906102bf919061237d565b610772565b005b6102e060048036038101906102db91906122e6565b610792565b005b6102fc60048036038101906102f791906121a7565b61086c565b60405161030991906121ed565b60405180910390f35b61032c6004803603810190610327919061233d565b6108b5565b005b610348600480360381019061034391906122e6565b61090f565b6040516103559190612322565b60405180910390f35b610378600480360381019061037391906121a7565b610921565b60405161038591906121ed565b60405180910390f35b6103966109db565b005b6103a06109ef565b6040516103ad9190612322565b60405180910390f35b6103be610a19565b6040516103cb9190612298565b60405180910390f35b6103ee60048036038101906103e991906121a7565b610aab565b6040516103fb91906121ed565b60405180910390f35b61041e600480360381019061041991906123fc565b610af4565b005b61043a60048036038101906104359190612571565b610b0a565b005b610456600480360381019061045191906122e6565b610b27565b6040516104639190612298565b60405180910390f35b61048660048036038101906104819190612695565b610b39565b005b6104a2600480360381019061049d91906121a7565b610c9f565b005b6104be60048036038101906104b991906126f1565b610cf7565b6040516104cb919061212e565b60405180910390f35b6104ee60048036038101906104e991906121a7565b610d8b565b005b60006104fb82610e11565b9050919050565b600a6020528060005260406000206000915090505481565b60606000805461052990612760565b80601f016020809104026020016040519081016040528092919081815260200182805461055590612760565b80156105a25780601f10610577576101008083540402835291602001916105a2565b820191906000526020600020905b81548152906001019060200180831161058557829003601f168201915b5050505050905090565b60006105b782610e72565b506105c182610efa565b9050919050565b6105da82826105d5610f37565b610f3f565b5050565b6105e6610f51565b6105ef81610fd8565b60006105fa8261090f565b90506000600960008373ffffffffffffffffffffffffffffffffffffffff1673ffffffffffffffffffffffffffffffffffffffff16815260200190815260200160002060006101000a81548160ff0219169083151502179055505050565b600073ffffffffffffffffffffffffffffffffffffffff168273ffffffffffffffffffffffffffffffffffffffff16036106ca5760006040517f64a0ae920000000000000000000000000000000000000000000000000000000081526004016106c19190612322565b60405180910390fd5b60006106de83836106d9610f37565b61105e565b90508373ffffffffffffffffffffffffffffffffffffffff168173ffffffffffffffffffffffffffffffffffffffff1614610754578382826040517f64283d7b00000000000000000000000000000000000000000000000000000000815260040161074b93929190612791565b60405180910390fd5b50505050565b600b6020528060005260406000206000915090505481565b61078d83838360405180602001604052806000815250610b0a565b505050565b3373ffffffffffffffffffffffffffffffffffffffff166107b28261090f565b73ffffffffffffffffffffffffffffffffffffffff1614610808576040517f08c379a00000000000000000000000000000000000000000000000000000000081526004016107ff9061283a565b60405180910390fd5b61081181610fd8565b6000600960003373ffffffffffffffffffffffffffffffffffffffff1673ffffffffffffffffffffffffffffffffffffffff16815260200190815260200160002060006101000a81548160ff02191690831515021790555050565b6000600b60008373ffffffffffffffffffffffffffffffffffffffff1673ffffffffffffffffffffffffffffffffffffffff168152602001908152602001600020549050919050565b80600b60008473ffffffffffffffffffffffffffffffffffffffff1673ffffffffffffffffffffffffffffffffffffffff16815260200190815260200160002060008282546109049190612889565b925050819055505050565b600061091a82610e72565b9050919050565b60008073ffffffffffffffffffffffffffffffffffffffff168273ffffffffffffffffffffffffffffffffffffffff16036109945760006040517f89c62b6400000000000000000000000000000000000000000000000000000000815260040161098b9190612322565b60405180910390fd5b600360008373ffffffffffffffffffffffffffffffffffffffff1673ffffffffffffffffffffffffffffffffffffffff168152602001908152602001600020549050919050565b6109e3610f51565b6109ed6000611278565b565b6000600760009054906101000a900473ffffffffffffffffffffffffffffffffffffffff16905090565b606060018054610a2890612760565b80601f0160208091040260200160405190810160405280929190818152602001828054610a5490612760565b8015610aa15780601f10610a7657610100808354040283529160200191610aa1565b820191906000526020600020905b815481529060010190602001808311610a8457829003601f168201915b5050505050905090565b6000600a60008373ffffffffffffffffffffffffffffffffffffffff1673ffffffffffffffffffffffffffffffffffffffff168152602001908152602001600020549050919050565b610b06610aff610f37565b838361133e565b5050565b610b15848484610658565b610b21848484846114ad565b50505050565b6060610b3282611664565b9050919050565b610b41610f51565b600960008373ffffffffffffffffffffffffffffffffffffffff1673ffffffffffffffffffffffffffffffffffffffff16815260200190815260200160002060009054906101000a900460ff1615610bce576040517f08c379a0000000000000000000000000000000000000000000000000000000008152600401610bc590612909565b60405180910390fd5b600060086000815480929190610be390612929565b919050559050610bf38382611777565b610bfd8183611795565b6001600960008573ffffffffffffffffffffffffffffffffffffffff1673ffffffffffffffffffffffffffffffffffffffff16815260200190815260200160002060006101000a81548160ff0219169083151502179055506000600a60008573ffffffffffffffffffffffffffffffffffffffff1673ffffffffffffffffffffffffffffffffffffffff16815260200190815260200160002081905550505050565b600a60008273ffffffffffffffffffffffffffffffffffffffff1673ffffffffffffffffffffffffffffffffffffffff1681526020019081526020016000206000815480929190610cef90612929565b919050555050565b6000600560008473ffffffffffffffffffffffffffffffffffffffff1673ffffffffffffffffffffffffffffffffffffffff16815260200190815260200160002060008373ffffffffffffffffffffffffffffffffffffffff1673ffffffffffffffffffffffffffffffffffffffff16815260200190815260200160002060009054906101000a900460ff16905092915050565b610d93610f51565b600073ffffffffffffffffffffffffffffffffffffffff168173ffffffffffffffffffffffffffffffffffffffff1603610e055760006040517f1e4fbdf7000000000000000000000000000000000000000000000000000000008152600401610dfc9190612322565b60405180910390fd5b610e0e81611278565b50565b6000634906490660e01b7bffffffffffffffffffffffffffffffffffffffffffffffffffffffff1916827bffffffffffffffffffffffffffffffffffffffffffffffffffffffff19161480610e6b5750610e6a826117f1565b5b9050919050565b600080610e7e836118d3565b9050600073ffffffffffffffffffffffffffffffffffffffff168173ffffffffffffffffffffffffffffffffffffffff1603610ef157826040517f7e273289000000000000000000000000000000000000000000000000000000008152600401610ee891906121ed565b60405180910390fd5b80915050919050565b60006004600083815260200190815260200160002060009054906101000a900473ffffffffffffffffffffffffffffffffffffffff169050919050565b600033905090565b610f4c8383836001611910565b505050565b610f59610f37565b73ffffffffffffffffffffffffffffffffffffffff16610f776109ef565b73ffffffffffffffffffffffffffffffffffffffff1614610fd657610f9a610f37565b6040517f118cdaa7000000000000000000000000000000000000000000000000000000008152600401610fcd9190612322565b60405180910390fd5b565b6000610fe7600083600061105e565b9050600073ffffffffffffffffffffffffffffffffffffffff168173ffffffffffffffffffffffffffffffffffffffff160361105a57816040517f7e27328900000000000000000000000000000000000000000000000000000000815260040161105191906121ed565b60405180910390fd5b5050565b60008061106a846118d3565b9050600073ffffffffffffffffffffffffffffffffffffffff168373ffffffffffffffffffffffffffffffffffffffff16146110ac576110ab818486611ad5565b5b600073ffffffffffffffffffffffffffffffffffffffff168173ffffffffffffffffffffffffffffffffffffffff161461113d576110ee600085600080611910565b6001600360008373ffffffffffffffffffffffffffffffffffffffff1673ffffffffffffffffffffffffffffffffffffffff168152602001908152602001600020600082825403925050819055505b600073ffffffffffffffffffffffffffffffffffffffff168573ffffffffffffffffffffffffffffffffffffffff16146111c0576001600360008773ffffffffffffffffffffffffffffffffffffffff1673ffffffffffffffffffffffffffffffffffffffff168152602001908152602001600020600082825401925050819055505b846002600086815260200190815260200160002060006101000a81548173ffffffffffffffffffffffffffffffffffffffff021916908373ffffffffffffffffffffffffffffffffffffffff160217905550838573ffffffffffffffffffffffffffffffffffffffff168273ffffffffffffffffffffffffffffffffffffffff167fddf252ad1be2c89b69c2b068fc378daa952ba7f163c4a11628f55a4df523b3ef60405160405180910390a4809150509392505050565b6000600760009054906101000a900473ffffffffffffffffffffffffffffffffffffffff16905081600760006101000a81548173ffffffffffffffffffffffffffffffffffffffff021916908373ffffffffffffffffffffffffffffffffffffffff1602179055508173ffffffffffffffffffffffffffffffffffffffff168173ffffffffffffffffffffffffffffffffffffffff167f8be0079c531659141344cd1fd0a4f28419497f9722a3daafe3b4186f6b6457e060405160405180910390a35050565b600073ffffffffffffffffffffffffffffffffffffffff168273ffffffffffffffffffffffffffffffffffffffff16036113af57816040517f5b08ba180000000000000000000000000000000000000000000000000000000081526004016113a69190612322565b60405180910390fd5b80600560008573ffffffffffffffffffffffffffffffffffffffff1673ffffffffffffffffffffffffffffffffffffffff16815260200190815260200160002060008473ffffffffffffffffffffffffffffffffffffffff1673ffffffffffffffffffffffffffffffffffffffff16815260200190815260200160002060006101000a81548160ff0219169083151502179055508173ffffffffffffffffffffffffffffffffffffffff168373ffffffffffffffffffffffffffffffffffffffff167f17307eab39ab6107e8899845ad3d59bd9653f200f220920489ca2b5937696c31836040516114a0919061212e565b60405180910390a3505050565b60008373ffffffffffffffffffffffffffffffffffffffff163b111561165e578273ffffffffffffffffffffffffffffffffffffffff1663150b7a026114f1610f37565b8685856040518563ffffffff1660e01b815260040161151394939291906129c6565b6020604051808303816000875af192505050801561154f57506040513d601f19601f8201168201806040525081019061154c9190612a27565b60015b6115d3573d806000811461157f576040519150601f19603f3d011682016040523d82523d6000602084013e611584565b606091505b5060008151036115cb57836040517f64a0ae920000000000000000000000000000000000000000000000000000000081526004016115c29190612322565b60405180910390fd5b805181602001fd5b63150b7a0260e01b7bffffffffffffffffffffffffffffffffffffffffffffffffffffffff1916817bffffffffffffffffffffffffffffffffffffffffffffffffffffffff19161461165c57836040517f64a0ae920000000000000000000000000000000000000000000000000000000081526004016116539190612322565b60405180910390fd5b505b50505050565b606061166f82610e72565b50600060066000848152602001908152602001600020805461169090612760565b80601f01602080910402602001604051908101604052809291908181526020018280546116bc90612760565b80156117095780601f106116de57610100808354040283529160200191611709565b820191906000526020600020905b8154815290600101906020018083116116ec57829003601f168201915b50505050509050600061171a611b99565b9050600081510361172f578192505050611772565b60008251111561176457808260405160200161174c929190612a90565b60405160208183030381529060405292505050611772565b61176d84611bb0565b925050505b919050565b611791828260405180602001604052806000815250611c19565b5050565b806006600084815260200190815260200160002090816117b59190612c60565b507ff8e1a15aba9398e019f0b49df1a4fde98ee17ae345cb5f6b5e2c27f5033e8ce7826040516117e591906121ed565b60405180910390a15050565b60007f80ac58cd000000000000000000000000000000000000000000000000000000007bffffffffffffffffffffffffffffffffffffffffffffffffffffffff1916827bffffffffffffffffffffffffffffffffffffffffffffffffffffffff191614806118bc57507f5b5e139f000000000000000000000000000000000000000000000000000000007bffffffffffffffffffffffffffffffffffffffffffffffffffffffff1916827bffffffffffffffffffffffffffffffffffffffffffffffffffffffff1916145b806118cc57506118cb82611c35565b5b9050919050565b60006002600083815260200190815260200160002060009054906101000a900473ffffffffffffffffffffffffffffffffffffffff169050919050565b80806119495750600073ffffffffffffffffffffffffffffffffffffffff168273ffffffffffffffffffffffffffffffffffffffff1614155b15611a7d57600061195984610e72565b9050600073ffffffffffffffffffffffffffffffffffffffff168373ffffffffffffffffffffffffffffffffffffffff16141580156119c457508273ffffffffffffffffffffffffffffffffffffffff168173ffffffffffffffffffffffffffffffffffffffff1614155b80156119d757506119d58184610cf7565b155b15611a1957826040517fa9fbf51f000000000000000000000000000000000000000000000000000000008152600401611a109190612322565b60405180910390fd5b8115611a7b57838573ffffffffffffffffffffffffffffffffffffffff168273ffffffffffffffffffffffffffffffffffffffff167f8c5be1e5ebec7d5bd14f71427d1e84f3dd0314c0f7b2291e5b200ac8c7c3b92560405160405180910390a45b505b836004600085815260200190815260200160002060006101000a81548173ffffffffffffffffffffffffffffffffffffffff021916908373ffffffffffffffffffffffffffffffffffffffff16021790555050505050565b611ae0838383611c9f565b611b9457600073ffffffffffffffffffffffffffffffffffffffff168373ffffffffffffffffffffffffffffffffffffffff1603611b5557806040517f7e273289000000000000000000000000000000000000000000000000000000008152600401611b4c91906121ed565b60405180910390fd5b81816040517f177e802f000000000000000000000000000000000000000000000000000000008152600401611b8b929190612d32565b60405180910390fd5b505050565b606060405180602001604052806000815250905090565b6060611bbb82610e72565b506000611bc6611b99565b90506000815111611be65760405180602001604052806000815250611c11565b80611bf084611d60565b604051602001611c01929190612a90565b6040516020818303038152906040525b915050919050565b611c238383611e2e565b611c3060008484846114ad565b505050565b60007f01ffc9a7000000000000000000000000000000000000000000000000000000007bffffffffffffffffffffffffffffffffffffffffffffffffffffffff1916827bffffffffffffffffffffffffffffffffffffffffffffffffffffffff1916149050919050565b60008073ffffffffffffffffffffffffffffffffffffffff168373ffffffffffffffffffffffffffffffffffffffff1614158015611d5757508273ffffffffffffffffffffffffffffffffffffffff168473ffffffffffffffffffffffffffffffffffffffff161480611d185750611d178484610cf7565b5b80611d5657508273ffffffffffffffffffffffffffffffffffffffff16611d3e83610efa565b73ffffffffffffffffffffffffffffffffffffffff16145b5b90509392505050565b606060006001611d6f84611f27565b01905060008167ffffffffffffffff811115611d8e57611d8d612446565b5b6040519080825280601f01601f191660200182016040528015611dc05781602001600182028036833780820191505090505b509050600082602001820190505b600115611e23578080600190039150507f3031323334353637383961626364656600000000000000000000000000000000600a86061a8153600a8581611e1757611e16612d5b565b5b04945060008503611dce575b819350505050919050565b600073ffffffffffffffffffffffffffffffffffffffff168273ffffffffffffffffffffffffffffffffffffffff1603611ea05760006040517f64a0ae92000000000000000000000000000000000000000000000000000000008152600401611e979190612322565b60405180910390fd5b6000611eae8383600061105e565b9050600073ffffffffffffffffffffffffffffffffffffffff168173ffffffffffffffffffffffffffffffffffffffff1614611f225760006040517f73c6ac6e000000000000000000000000000000000000000000000000000000008152600401611f199190612322565b60405180910390fd5b505050565b600080600090507a184f03e93ff9f4daa797ed6e38ed64bf6a1f0100000000000000008310611f85577a184f03e93ff9f4daa797ed6e38ed64bf6a1f0100000000000000008381611f7b57611f7a612d5b565b5b0492506040810190505b6d04ee2d6d415b85acef81000000008310611fc2576d04ee2d6d415b85acef81000000008381611fb857611fb7612d5b565b5b0492506020810190505b662386f26fc100008310611ff157662386f26fc100008381611fe757611fe6612d5b565b5b0492506010810190505b6305f5e100831061201a576305f5e10083816120105761200f612d5b565b5b0492506008810190505b612710831061203f57612710838161203557612034612d5b565b5b0492506004810190505b60648310612062576064838161205857612057612d5b565b5b0492506002810190505b600a8310612071576001810190505b80915050919050565b6000604051905090565b600080fd5b600080fd5b60007fffffffff0000000000000000000000000000000000000000000000000000000082169050919050565b6120c38161208e565b81146120ce57600080fd5b50565b6000813590506120e0816120ba565b92915050565b6000602082840312156120fc576120fb612084565b5b600061210a848285016120d1565b91505092915050565b60008115159050919050565b61212881612113565b82525050565b6000602082019050612143600083018461211f565b92915050565b600073ffffffffffffffffffffffffffffffffffffffff82169050919050565b600061217482612149565b9050919050565b61218481612169565b811461218f57600080fd5b50565b6000813590506121a18161217b565b92915050565b6000602082840312156121bd576121bc612084565b5b60006121cb84828501612192565b91505092915050565b6000819050919050565b6121e7816121d4565b82525050565b600060208201905061220260008301846121de565b92915050565b600081519050919050565b600082825260208201905092915050565b60005b83811015612242578082015181840152602081019050612227565b60008484015250505050565b6000601f19601f8301169050919050565b600061226a82612208565b6122748185612213565b9350612284818560208601612224565b61228d8161224e565b840191505092915050565b600060208201905081810360008301526122b2818461225f565b905092915050565b6122c3816121d4565b81146122ce57600080fd5b50565b6000813590506122e0816122ba565b92915050565b6000602082840312156122fc576122fb612084565b5b600061230a848285016122d1565b91505092915050565b61231c81612169565b82525050565b60006020820190506123376000830184612313565b92915050565b6000806040838503121561235457612353612084565b5b600061236285828601612192565b9250506020612373858286016122d1565b9150509250929050565b60008060006060848603121561239657612395612084565b5b60006123a486828701612192565b93505060206123b586828701612192565b92505060406123c6868287016122d1565b9150509250925092565b6123d981612113565b81146123e457600080fd5b50565b6000813590506123f6816123d0565b92915050565b6000806040838503121561241357612412612084565b5b600061242185828601612192565b9250506020612432858286016123e7565b9150509250929050565b600080fd5b600080fd5b7f4e487b7100000000000000000000000000000000000000000000000000000000600052604160045260246000fd5b61247e8261224e565b810181811067ffffffffffffffff8211171561249d5761249c612446565b5b80604052505050565b60006124b061207a565b90506124bc8282612475565b919050565b600067ffffffffffffffff8211156124dc576124db612446565b5b6124e58261224e565b9050602081019050919050565b82818337600083830152505050565b600061251461250f846124c1565b6124a6565b9050828152602081018484840111156125305761252f612441565b5b61253b8482856124f2565b509392505050565b600082601f8301126125585761255761243c565b5b8135612568848260208601612501565b91505092915050565b6000806000806080858703121561258b5761258a612084565b5b600061259987828801612192565b94505060206125aa87828801612192565b93505060406125bb878288016122d1565b925050606085013567ffffffffffffffff8111156125dc576125db612089565b5b6125e887828801612543565b91505092959194509250565b600067ffffffffffffffff82111561260f5761260e612446565b5b6126188261224e565b9050602081019050919050565b6000612638612633846125f4565b6124a6565b90508281526020810184848401111561265457612653612441565b5b61265f8482856124f2565b509392505050565b600082601f83011261267c5761267b61243c565b5b813561268c848260208601612625565b91505092915050565b600080604083850312156126ac576126ab612084565b5b60006126ba85828601612192565b925050602083013567ffffffffffffffff8111156126db576126da612089565b5b6126e785828601612667565b9150509250929050565b6000806040838503121561270857612707612084565b5b600061271685828601612192565b925050602061272785828601612192565b9150509250929050565b7f4e487b7100000000000000000000000000000000000000000000000000000000600052602260045260246000fd5b6000600282049050600182168061277857607f821691505b60208210810361278b5761278a612731565b5b50919050565b60006060820190506127a66000830186612313565b6127b360208301856121de565b6127c06040830184612313565b949350505050565b7f4f6e6c79206f776e6572206f662074686520746f6b656e2063616e206275726e60008201527f2049440000000000000000000000000000000000000000000000000000000000602082015250565b6000612824602383612213565b915061282f826127c8565b604082019050919050565b6000602082019050818103600083015261285381612817565b9050919050565b7f4e487b7100000000000000000000000000000000000000000000000000000000600052601160045260246000fd5b6000612894826121d4565b915061289f836121d4565b92508282019050808211156128b7576128b661285a565b5b92915050565b7f5573657220616c72656164792068617320612049440000000000000000000000600082015250565b60006128f3601583612213565b91506128fe826128bd565b602082019050919050565b60006020820190508181036000830152612922816128e6565b9050919050565b6000612934826121d4565b91507fffffffffffffffffffffffffffffffffffffffffffffffffffffffffffffffff82036129665761296561285a565b5b600182019050919050565b600081519050919050565b600082825260208201905092915050565b600061299882612971565b6129a2818561297c565b93506129b2818560208601612224565b6129bb8161224e565b840191505092915050565b60006080820190506129db6000830187612313565b6129e86020830186612313565b6129f560408301856121de565b8181036060830152612a07818461298d565b905095945050505050565b600081519050612a21816120ba565b92915050565b600060208284031215612a3d57612a3c612084565b5b6000612a4b84828501612a12565b91505092915050565b600081905092915050565b6000612a6a82612208565b612a748185612a54565b9350612a84818560208601612224565b80840191505092915050565b6000612a9c8285612a5f565b9150612aa88284612a5f565b91508190509392505050565b60008190508160005260206000209050919050565b60006020601f8301049050919050565b600082821b905092915050565b600060088302612b167fffffffffffffffffffffffffffffffffffffffffffffffffffffffffffffffff82612ad9565b612b208683612ad9565b95508019841693508086168417925050509392505050565b6000819050919050565b6000612b5d612b58612b53846121d4565b612b38565b6121d4565b9050919050565b6000819050919050565b612b7783612b42565b612b8b612b8382612b64565b848454612ae6565b825550505050565b600090565b612ba0612b93565b612bab818484612b6e565b505050565b5b81811015612bcf57612bc4600082612b98565b600181019050612bb1565b5050565b601f821115612c1457612be581612ab4565b612bee84612ac9565b81016020851015612bfd578190505b612c11612c0985612ac9565b830182612bb0565b50505b505050565b600082821c905092915050565b6000612c3760001984600802612c19565b1980831691505092915050565b6000612c508383612c26565b9150826002028217905092915050565b612c6982612208565b67ffffffffffffffff811115612c8257612c81612446565b5b612c8c8254612760565b612c97828285612bd3565b600060209050601f831160018114612cca5760008415612cb8578287015190505b612cc28582612c44565b865550612d2a565b601f198416612cd886612ab4565b60005b82811015612d0057848901518255600182019150602085019450602081019050612cdb565b86831015612d1d5784890151612d19601f891682612c26565b8355505b6001600288020188555050505b505050505050565b6000604082019050612d476000830185612313565b612d5460208301846121de565b9392505050565b7f4e487b7100000000000000000000000000000000000000000000000000000000600052601260045260246000fdfea2646970667358221220da9a1871a141f2e7267ffc451ce7e86e635fe8359f32c9d5e4c3fb8ef680a39764736f6c63430008140033",
	"devdoc": {
		"errors": {
			"ERC721IncorrectOwner(address,uint256,address)": [
				{
					"details": "Indicates an error related to the ownership over a particular token. Used in transfers.",
					"params": {
						"owner": "Address of the current owner of a token.",
						"sender": "Address whose tokens are being transferred.",
						"tokenId": "Identifier number of a token."
					}
				}
			],
			"ERC721InsufficientApproval(address,uint256)": [
				{
					"details": "Indicates a failure with the `operator`s approval. Used in transfers.",
					"params": {
						"operator": "Address that may be allowed to operate on tokens without being their owner.",
						"tokenId": "Identifier number of a token."
					}
				}
			],
			"ERC721InvalidApprover(address)": [
				{
					"details": "Indicates a failure with the `approver` of a token to be approved. Used in approvals.",
					"params": {
						"approver": "Address initiating an approval operation."
					}
				}
			],
			"ERC721InvalidOperator(address)": [
				{
					"details": "Indicates a failure with the `operator` to be approved. Used in approvals.",
					"params": {
						"operator": "Address that may be allowed to operate on tokens without being their owner."
					}
				}
			],
			"ERC721InvalidOwner(address)": [
				{
					"details": "Indicates that an address can't be an owner. For example, `address(0)` is a forbidden owner in EIP-20. Used in balance queries.",
					"params": {
						"owner": "Address of the current owner of a token."
					}
				}
			],
			"ERC721InvalidReceiver(address)": [
				{
					"details": "Indicates a failure with the token `receiver`. Used in transfers.",
					"params": {
						"receiver": "Address to which tokens are being transferred."
					}
				}
			],
			"ERC721InvalidSender(address)": [
				{
					"details": "Indicates a failure with the token `sender`. Used in transfers.",
					"params": {
						"sender": "Address whose tokens are being transferred."
					}
				}
			],
			"ERC721NonexistentToken(uint256)": [
				{
					"details": "Indicates a `tokenId` whose `owner` is the zero address.",
					"params": {
						"tokenId": "Identifier number of a token."
					}
				}
			],
			"OwnableInvalidOwner(address)": [
				{
					"details": "The owner is not a valid owner account. (eg. `address(0)`)"
				}
			],
			"OwnableUnauthorizedAccount(address)": [
				{
					"details": "The caller account is not authorized to perform an operation."
				}
			]
		},
		"events": {
			"Approval(address,address,uint256)": {
				"details": "Emitted when `owner` enables `approved` to manage the `tokenId` token."
			},
			"ApprovalForAll(address,address,bool)": {
				"details": "Emitted when `owner` enables or disables (`approved`) `operator` to manage all of its assets."
			},
			"BatchMetadataUpdate(uint256,uint256)": {
				"details": "This event emits when the metadata of a range of tokens is changed. So that the third-party platforms such as NFT market could timely update the images and related attributes of the NFTs."
			},
			"MetadataUpdate(uint256)": {
				"details": "This event emits when the metadata of a token is changed. So that the third-party platforms such as NFT market could timely update the images and related attributes of the NFT."
			},
			"Transfer(address,address,uint256)": {
				"details": "Emitted when `tokenId` token is transferred from `from` to `to`."
			}
		},
		"kind": "dev",
		"methods": {
			"approve(address,uint256)": {
				"details": "See {IERC721-approve}."
			},
			"balanceOf(address)": {
				"details": "See {IERC721-balanceOf}."
			},
			"getApproved(uint256)": {
				"details": "See {IERC721-getApproved}."
			},
			"isApprovedForAll(address,address)": {
				"details": "See {IERC721-isApprovedForAll}."
			},
			"name()": {
				"details": "See {IERC721Metadata-name}."
			},
			"owner()": {
				"details": "Returns the address of the current owner."
			},
			"ownerOf(uint256)": {
				"details": "See {IERC721-ownerOf}."
			},
			"renounceOwnership()": {
				"details": "Leaves the contract without owner. It will not be possible to call `onlyOwner` functions. Can only be called by the current owner. NOTE: Renouncing ownership will leave the contract without an owner, thereby disabling any functionality that is only available to the owner."
			},
			"safeTransferFrom(address,address,uint256)": {
				"details": "See {IERC721-safeTransferFrom}."
			},
			"safeTransferFrom(address,address,uint256,bytes)": {
				"details": "See {IERC721-safeTransferFrom}."
			},
			"setApprovalForAll(address,bool)": {
				"details": "See {IERC721-setApprovalForAll}."
			},
			"symbol()": {
				"details": "See {IERC721Metadata-symbol}."
			},
			"transferFrom(address,address,uint256)": {
				"details": "See {IERC721-transferFrom}."
			},
			"transferOwnership(address)": {
				"details": "Transfers ownership of the contract to a new account (`newOwner`). Can only be called by the current owner."
			}
		},
		"version": 1
	},
	"userdoc": {
		"kind": "user",
		"methods": {},
		"version": 1
	},
	"storageLayout": {
		"storage": [
			{
				"astId": 2407,
				"contract": "src/contracts/PokieID.sol:PokieID",
				"label": "_name",
				"offset": 0,
				"slot": "0",
				"type": "t_string_storage"
			},
			{
				"astId": 2409,
				"contract": "src/contracts/PokieID.sol:PokieID",
				"label": "_symbol",
				"offset": 0,
				"slot": "1",
				"type": "t_string_storage"
			},
			{
				"astId": 2413,
				"contract": "src/contracts/PokieID.sol:PokieID",
				"label": "_owners",
				"offset": 0,
				"slot": "2",
				"type": "t_mapping(t_uint256,t_address)"
			},
			{
				"astId": 2417,
				"contract": "src/contracts/PokieID.sol:PokieID",
				"label": "_balances",
				"offset": 0,
				"slot": "3",
				"type": "t_mapping(t_address,t_uint256)"
			},
			{
				"astId": 2421,
				"contract": "src/contracts/PokieID.sol:PokieID",
				"label": "_tokenApprovals",
				"offset": 0,
				"slot": "4",
				"type": "t_mapping(t_uint256,t_address)"
			},
			{
				"astId": 2427,
				"contract": "src/contracts/PokieID.sol:PokieID",
				"label": "_operatorApprovals",
				"offset": 0,
				"slot": "5",
				"type": "t_mapping(t_address,t_mapping(t_address,t_bool))"
			},
			{
				"astId": 3546,
				"contract": "src/contracts/PokieID.sol:PokieID",
				"label": "_tokenURIs",
				"offset": 0,
				"slot": "6",
				"type": "t_mapping(t_uint256,t_string_storage)"
			},
			{
				"astId": 8,
				"contract": "src/contracts/PokieID.sol:PokieID",
				"label": "_owner",
				"offset": 0,
				"slot": "7",
				"type": "t_address"
			},
			{
				"astId": 5673,
				"contract": "src/contracts/PokieID.sol:PokieID",
				"label": "_nextTokenId",
				"offset": 0,
				"slot": "8",
				"type": "t_uint256"
			},
			{
				"astId": 5677,
				"contract": "src/contracts/PokieID.sol:PokieID",
				"label": "_hasToken",
				"offset": 0,
				"slot": "9",
				"type": "t_mapping(t_address,t_bool)"
			},
			{
				"astId": 5681,
				"contract": "src/contracts/PokieID.sol:PokieID",
				"label": "attendence",
				"offset": 0,
				"slot": "10",
				"type": "t_mapping(t_address,t_uint256)"
			},
			{
				"astId": 5685,
				"contract": "src/contracts/PokieID.sol:PokieID",
				"label": "points",
				"offset": 0,
				"slot": "11",
				"type": "t_mapping(t_address,t_uint256)"
			}
		],
		"types": {
			"t_address": {
				"encoding": "inplace",
				"label": "address",
				"numberOfBytes": "20"
			},
			"t_bool": {
				"encoding": "inplace",
				"label": "bool",
				"numberOfBytes": "1"
			},
			"t_mapping(t_address,t_bool)": {
				"encoding": "mapping",
				"key": "t_address",
				"label": "mapping(address => bool)",
				"numberOfBytes": "32",
				"value": "t_bool"
			},
			"t_mapping(t_address,t_mapping(t_address,t_bool))": {
				"encoding": "mapping",
				"key": "t_address",
				"label": "mapping(address => mapping(address => bool))",
				"numberOfBytes": "32",
				"value": "t_mapping(t_address,t_bool)"
			},
			"t_mapping(t_address,t_uint256)": {
				"encoding": "mapping",
				"key": "t_address",
				"label": "mapping(address => uint256)",
				"numberOfBytes": "32",
				"value": "t_uint256"
			},
			"t_mapping(t_uint256,t_address)": {
				"encoding": "mapping",
				"key": "t_uint256",
				"label": "mapping(uint256 => address)",
				"numberOfBytes": "32",
				"value": "t_address"
			},
			"t_mapping(t_uint256,t_string_storage)": {
				"encoding": "mapping",
				"key": "t_uint256",
				"label": "mapping(uint256 => string)",
				"numberOfBytes": "32",
				"value": "t_string_storage"
			},
			"t_string_storage": {
				"encoding": "bytes",
				"label": "string",
				"numberOfBytes": "32"
			},
			"t_uint256": {
				"encoding": "inplace",
				"label": "uint256",
				"numberOfBytes": "32"
			}
		}
	}
}