{
  "address": "0x833413E1C5E11C91F5e4bc3e426B082B7128406F",
  "abi": [
    {
      "inputs": [
        {
          "internalType": "address",
          "name": "initialOwner",
          "type": "address"
        },
        {
          "internalType": "address",
          "name": "marketplaceAddress",
          "type": "address"
        },
        {
          "internalType": "address",
          "name": "idAddress",
          "type": "address"
        }
      ],
      "stateMutability": "nonpayable",
      "type": "constructor"
    },
    {
      "inputs": [
        {
          "internalType": "address",
          "name": "sender",
          "type": "address"
        },
        {
          "internalType": "uint256",
          "name": "balance",
          "type": "uint256"
        },
        {
          "internalType": "uint256",
          "name": "needed",
          "type": "uint256"
        },
        {
          "internalType": "uint256",
          "name": "tokenId",
          "type": "uint256"
        }
      ],
      "name": "ERC1155InsufficientBalance",
      "type": "error"
    },
    {
      "inputs": [
        {
          "internalType": "address",
          "name": "approver",
          "type": "address"
        }
      ],
      "name": "ERC1155InvalidApprover",
      "type": "error"
    },
    {
      "inputs": [
        {
          "internalType": "uint256",
          "name": "idsLength",
          "type": "uint256"
        },
        {
          "internalType": "uint256",
          "name": "valuesLength",
          "type": "uint256"
        }
      ],
      "name": "ERC1155InvalidArrayLength",
      "type": "error"
    },
    {
      "inputs": [
        {
          "internalType": "address",
          "name": "operator",
          "type": "address"
        }
      ],
      "name": "ERC1155InvalidOperator",
      "type": "error"
    },
    {
      "inputs": [
        {
          "internalType": "address",
          "name": "receiver",
          "type": "address"
        }
      ],
      "name": "ERC1155InvalidReceiver",
      "type": "error"
    },
    {
      "inputs": [
        {
          "internalType": "address",
          "name": "sender",
          "type": "address"
        }
      ],
      "name": "ERC1155InvalidSender",
      "type": "error"
    },
    {
      "inputs": [
        {
          "internalType": "address",
          "name": "operator",
          "type": "address"
        },
        {
          "internalType": "address",
          "name": "owner",
          "type": "address"
        }
      ],
      "name": "ERC1155MissingApprovalForAll",
      "type": "error"
    },
    {
      "inputs": [
        {
          "internalType": "address",
          "name": "owner",
          "type": "address"
        }
      ],
      "name": "OwnableInvalidOwner",
      "type": "error"
    },
    {
      "inputs": [
        {
          "internalType": "address",
          "name": "account",
          "type": "address"
        }
      ],
      "name": "OwnableUnauthorizedAccount",
      "type": "error"
    },
    {
      "anonymous": false,
      "inputs": [
        {
          "indexed": true,
          "internalType": "address",
          "name": "account",
          "type": "address"
        },
        {
          "indexed": true,
          "internalType": "address",
          "name": "operator",
          "type": "address"
        },
        {
          "indexed": false,
          "internalType": "bool",
          "name": "approved",
          "type": "bool"
        }
      ],
      "name": "ApprovalForAll",
      "type": "event"
    },
    {
      "anonymous": false,
      "inputs": [
        {
          "indexed": true,
          "internalType": "address",
          "name": "previousOwner",
          "type": "address"
        },
        {
          "indexed": true,
          "internalType": "address",
          "name": "newOwner",
          "type": "address"
        }
      ],
      "name": "OwnershipTransferred",
      "type": "event"
    },
    {
      "anonymous": false,
      "inputs": [
        {
          "indexed": true,
          "internalType": "address",
          "name": "operator",
          "type": "address"
        },
        {
          "indexed": true,
          "internalType": "address",
          "name": "from",
          "type": "address"
        },
        {
          "indexed": true,
          "internalType": "address",
          "name": "to",
          "type": "address"
        },
        {
          "indexed": false,
          "internalType": "uint256[]",
          "name": "ids",
          "type": "uint256[]"
        },
        {
          "indexed": false,
          "internalType": "uint256[]",
          "name": "values",
          "type": "uint256[]"
        }
      ],
      "name": "TransferBatch",
      "type": "event"
    },
    {
      "anonymous": false,
      "inputs": [
        {
          "indexed": true,
          "internalType": "address",
          "name": "operator",
          "type": "address"
        },
        {
          "indexed": true,
          "internalType": "address",
          "name": "from",
          "type": "address"
        },
        {
          "indexed": true,
          "internalType": "address",
          "name": "to",
          "type": "address"
        },
        {
          "indexed": false,
          "internalType": "uint256",
          "name": "id",
          "type": "uint256"
        },
        {
          "indexed": false,
          "internalType": "uint256",
          "name": "value",
          "type": "uint256"
        }
      ],
      "name": "TransferSingle",
      "type": "event"
    },
    {
      "anonymous": false,
      "inputs": [
        {
          "indexed": false,
          "internalType": "string",
          "name": "value",
          "type": "string"
        },
        {
          "indexed": true,
          "internalType": "uint256",
          "name": "id",
          "type": "uint256"
        }
      ],
      "name": "URI",
      "type": "event"
    },
    {
      "inputs": [
        {
          "internalType": "address",
          "name": "account",
          "type": "address"
        },
        {
          "internalType": "uint256",
          "name": "id",
          "type": "uint256"
        }
      ],
      "name": "balanceOf",
      "outputs": [
        {
          "internalType": "uint256",
          "name": "",
          "type": "uint256"
        }
      ],
      "stateMutability": "view",
      "type": "function"
    },
    {
      "inputs": [
        {
          "internalType": "address[]",
          "name": "accounts",
          "type": "address[]"
        },
        {
          "internalType": "uint256[]",
          "name": "ids",
          "type": "uint256[]"
        }
      ],
      "name": "balanceOfBatch",
      "outputs": [
        {
          "internalType": "uint256[]",
          "name": "",
          "type": "uint256[]"
        }
      ],
      "stateMutability": "view",
      "type": "function"
    },
    {
      "inputs": [
        {
          "internalType": "uint256",
          "name": "id",
          "type": "uint256"
        }
      ],
      "name": "burn",
      "outputs": [],
      "stateMutability": "nonpayable",
      "type": "function"
    },
    {
      "inputs": [
        {
          "internalType": "address",
          "name": "account",
          "type": "address"
        },
        {
          "internalType": "uint256",
          "name": "id",
          "type": "uint256"
        },
        {
          "internalType": "uint256",
          "name": "value",
          "type": "uint256"
        }
      ],
      "name": "burn",
      "outputs": [],
      "stateMutability": "nonpayable",
      "type": "function"
    },
    {
      "inputs": [
        {
          "internalType": "address",
          "name": "account",
          "type": "address"
        },
        {
          "internalType": "uint256[]",
          "name": "ids",
          "type": "uint256[]"
        },
        {
          "internalType": "uint256[]",
          "name": "values",
          "type": "uint256[]"
        }
      ],
      "name": "burnBatch",
      "outputs": [],
      "stateMutability": "nonpayable",
      "type": "function"
    },
    {
      "inputs": [
        {
          "internalType": "uint8",
          "name": "id",
          "type": "uint8"
        }
      ],
      "name": "craft",
      "outputs": [],
      "stateMutability": "nonpayable",
      "type": "function"
    },
    {
      "inputs": [
        {
          "internalType": "address",
          "name": "account",
          "type": "address"
        },
        {
          "internalType": "address",
          "name": "operator",
          "type": "address"
        }
      ],
      "name": "isApprovedForAll",
      "outputs": [
        {
          "internalType": "bool",
          "name": "",
          "type": "bool"
        }
      ],
      "stateMutability": "view",
      "type": "function"
    },
    {
      "inputs": [],
      "name": "owner",
      "outputs": [
        {
          "internalType": "address",
          "name": "",
          "type": "address"
        }
      ],
      "stateMutability": "view",
      "type": "function"
    },
    {
      "inputs": [],
      "name": "poxieID",
      "outputs": [
        {
          "internalType": "contract PoxieID",
          "name": "",
          "type": "address"
        }
      ],
      "stateMutability": "view",
      "type": "function"
    },
    {
      "inputs": [],
      "name": "renounceOwnership",
      "outputs": [],
      "stateMutability": "nonpayable",
      "type": "function"
    },
    {
      "inputs": [
        {
          "internalType": "address",
          "name": "from",
          "type": "address"
        },
        {
          "internalType": "address",
          "name": "to",
          "type": "address"
        },
        {
          "internalType": "uint256[]",
          "name": "ids",
          "type": "uint256[]"
        },
        {
          "internalType": "uint256[]",
          "name": "values",
          "type": "uint256[]"
        },
        {
          "internalType": "bytes",
          "name": "data",
          "type": "bytes"
        }
      ],
      "name": "safeBatchTransferFrom",
      "outputs": [],
      "stateMutability": "nonpayable",
      "type": "function"
    },
    {
      "inputs": [
        {
          "internalType": "address",
          "name": "from",
          "type": "address"
        },
        {
          "internalType": "address",
          "name": "to",
          "type": "address"
        },
        {
          "internalType": "uint256",
          "name": "id",
          "type": "uint256"
        },
        {
          "internalType": "uint256",
          "name": "value",
          "type": "uint256"
        },
        {
          "internalType": "bytes",
          "name": "data",
          "type": "bytes"
        }
      ],
      "name": "safeTransferFrom",
      "outputs": [],
      "stateMutability": "nonpayable",
      "type": "function"
    },
    {
      "inputs": [
        {
          "internalType": "address",
          "name": "operator",
          "type": "address"
        },
        {
          "internalType": "bool",
          "name": "approved",
          "type": "bool"
        }
      ],
      "name": "setApprovalForAll",
      "outputs": [],
      "stateMutability": "nonpayable",
      "type": "function"
    },
    {
      "inputs": [
        {
          "internalType": "bytes4",
          "name": "interfaceId",
          "type": "bytes4"
        }
      ],
      "name": "supportsInterface",
      "outputs": [
        {
          "internalType": "bool",
          "name": "",
          "type": "bool"
        }
      ],
      "stateMutability": "view",
      "type": "function"
    },
    {
      "inputs": [
        {
          "internalType": "address",
          "name": "newOwner",
          "type": "address"
        }
      ],
      "name": "transferOwnership",
      "outputs": [],
      "stateMutability": "nonpayable",
      "type": "function"
    },
    {
      "inputs": [
        {
          "internalType": "uint256",
          "name": "",
          "type": "uint256"
        }
      ],
      "name": "uri",
      "outputs": [
        {
          "internalType": "string",
          "name": "",
          "type": "string"
        }
      ],
      "stateMutability": "view",
      "type": "function"
    }
  ],
  "transactionHash": "0x10d260f80eb1895875df3d4dae8c7591d1c59b4cbe6df8054b0808571c455c85",
  "args": [
    "0xa4ffee15dc0930eca8e0bac4ed0087db149a682a",
    "0x4ADF8385d353D16e410fE3df0196a53e253c2e89",
    "0xCb9FD0aDE8Be6Cb7d094473189a7AF39986Fd0BF"
  ],
  "numDeployments": 1,
  "solcInputHash": "2eea4c037f70eb0afee90289e20635a7",
  "bytecode": "0x60806040523480156200001157600080fd5b506040516200301f3803806200301f8339818101604052810190620000379190620002bb565b826040518060600160405280603a815260200162002fe5603a913962000063816200017660201b60201c565b50600073ffffffffffffffffffffffffffffffffffffffff168173ffffffffffffffffffffffffffffffffffffffff1603620000d95760006040517f1e4fbdf7000000000000000000000000000000000000000000000000000000008152600401620000d0919062000328565b60405180910390fd5b620000ea816200018b60201b60201c565b5081600460006101000a81548173ffffffffffffffffffffffffffffffffffffffff021916908373ffffffffffffffffffffffffffffffffffffffff16021790555080600560006101000a81548173ffffffffffffffffffffffffffffffffffffffff021916908373ffffffffffffffffffffffffffffffffffffffff160217905550505050620006a6565b8060029081620001879190620005bf565b5050565b6000600360009054906101000a900473ffffffffffffffffffffffffffffffffffffffff16905081600360006101000a81548173ffffffffffffffffffffffffffffffffffffffff021916908373ffffffffffffffffffffffffffffffffffffffff1602179055508173ffffffffffffffffffffffffffffffffffffffff168173ffffffffffffffffffffffffffffffffffffffff167f8be0079c531659141344cd1fd0a4f28419497f9722a3daafe3b4186f6b6457e060405160405180910390a35050565b600080fd5b600073ffffffffffffffffffffffffffffffffffffffff82169050919050565b6000620002838262000256565b9050919050565b620002958162000276565b8114620002a157600080fd5b50565b600081519050620002b5816200028a565b92915050565b600080600060608486031215620002d757620002d662000251565b5b6000620002e786828701620002a4565b9350506020620002fa86828701620002a4565b92505060406200030d86828701620002a4565b9150509250925092565b620003228162000276565b82525050565b60006020820190506200033f600083018462000317565b92915050565b600081519050919050565b7f4e487b7100000000000000000000000000000000000000000000000000000000600052604160045260246000fd5b7f4e487b7100000000000000000000000000000000000000000000000000000000600052602260045260246000fd5b60006002820490506001821680620003c757607f821691505b602082108103620003dd57620003dc6200037f565b5b50919050565b60008190508160005260206000209050919050565b60006020601f8301049050919050565b600082821b905092915050565b600060088302620004477fffffffffffffffffffffffffffffffffffffffffffffffffffffffffffffffff8262000408565b62000453868362000408565b95508019841693508086168417925050509392505050565b6000819050919050565b6000819050919050565b6000620004a06200049a62000494846200046b565b62000475565b6200046b565b9050919050565b6000819050919050565b620004bc836200047f565b620004d4620004cb82620004a7565b84845462000415565b825550505050565b600090565b620004eb620004dc565b620004f8818484620004b1565b505050565b5b81811015620005205762000514600082620004e1565b600181019050620004fe565b5050565b601f8211156200056f576200053981620003e3565b6200054484620003f8565b8101602085101562000554578190505b6200056c6200056385620003f8565b830182620004fd565b50505b505050565b600082821c905092915050565b6000620005946000198460080262000574565b1980831691505092915050565b6000620005af838362000581565b9150826002028217905092915050565b620005ca8262000345565b67ffffffffffffffff811115620005e657620005e562000350565b5b620005f28254620003ae565b620005ff82828562000524565b600060209050601f83116001811462000637576000841562000622578287015190505b6200062e8582620005a1565b8655506200069e565b601f1984166200064786620003e3565b60005b8281101562000671578489015182556001820191506020850194506020810190506200064a565b868310156200069157848901516200068d601f89168262000581565b8355505b6001600288020188555050505b505050505050565b61292f80620006b66000396000f3fe608060405234801561001057600080fd5b50600436106100ff5760003560e01c80638da5cb5b11610097578063e985e9c511610066578063e985e9c514610296578063f242432a146102c6578063f2fde38b146102e2578063f5298aca146102fe576100ff565b80638da5cb5b146102225780638fd83cc714610240578063a22cb4651461025e578063a58216ea1461027a576100ff565b806342966c68116100d357806342966c68146101b05780634e1273f4146101cc5780636b20c454146101fc578063715018a614610218576100ff565b8062fdd58e1461010457806301ffc9a7146101345780630e89341c146101645780632eb2c2d614610194575b600080fd5b61011e60048036038101906101199190611af1565b61031a565b60405161012b9190611b40565b60405180910390f35b61014e60048036038101906101499190611bb3565b610374565b60405161015b9190611bfb565b60405180910390f35b61017e60048036038101906101799190611c16565b610456565b60405161018b9190611cd3565b60405180910390f35b6101ae60048036038101906101a99190611ef2565b6104ea565b005b6101ca60048036038101906101c59190611c16565b610592565b005b6101e660048036038101906101e19190612084565b6105a1565b6040516101f391906121ba565b60405180910390f35b610216600480360381019061021191906121dc565b6106b0565b005b61022061075c565b005b61022a610770565b6040516102379190612276565b60405180910390f35b61024861079a565b60405161025591906122f0565b60405180910390f35b61027860048036038101906102739190612337565b6107c0565b005b610294600480360381019061028f91906123b0565b6107d6565b005b6102b060048036038101906102ab91906123dd565b6108b5565b6040516102bd9190611bfb565b60405180910390f35b6102e060048036038101906102db919061241d565b610949565b005b6102fc60048036038101906102f791906124b4565b6109f1565b005b610318600480360381019061031391906124e1565b610a77565b005b600080600083815260200190815260200160002060008473ffffffffffffffffffffffffffffffffffffffff1673ffffffffffffffffffffffffffffffffffffffff16815260200190815260200160002054905092915050565b60007fd9b67a26000000000000000000000000000000000000000000000000000000007bffffffffffffffffffffffffffffffffffffffffffffffffffffffff1916827bffffffffffffffffffffffffffffffffffffffffffffffffffffffff1916148061043f57507f0e89341c000000000000000000000000000000000000000000000000000000007bffffffffffffffffffffffffffffffffffffffffffffffffffffffff1916827bffffffffffffffffffffffffffffffffffffffffffffffffffffffff1916145b8061044f575061044e82610b23565b5b9050919050565b60606002805461046590612563565b80601f016020809104026020016040519081016040528092919081815260200182805461049190612563565b80156104de5780601f106104b3576101008083540402835291602001916104de565b820191906000526020600020905b8154815290600101906020018083116104c157829003601f168201915b50505050509050919050565b60006104f4610b8d565b90508073ffffffffffffffffffffffffffffffffffffffff168673ffffffffffffffffffffffffffffffffffffffff1614158015610539575061053786826108b5565b155b1561057d5780866040517fe237d922000000000000000000000000000000000000000000000000000000008152600401610574929190612594565b60405180910390fd5b61058a8686868686610b95565b505050505050565b61059e33826001610c8d565b50565b606081518351146105ed57815183516040517f5b0599910000000000000000000000000000000000000000000000000000000081526004016105e49291906125bd565b60405180910390fd5b6000835167ffffffffffffffff81111561060a57610609611cfa565b5b6040519080825280602002602001820160405280156106385781602001602082028036833780820191505090505b50905060005b84518110156106a55761067561065d8287610d3490919063ffffffff16565b6106708387610d4890919063ffffffff16565b61031a565b828281518110610688576106876125e6565b5b6020026020010181815250508061069e90612644565b905061063e565b508091505092915050565b6106b8610b8d565b73ffffffffffffffffffffffffffffffffffffffff168373ffffffffffffffffffffffffffffffffffffffff161415801561070157506106ff836106fa610b8d565b6108b5565b155b1561074c5761070e610b8d565b836040517fe237d922000000000000000000000000000000000000000000000000000000008152600401610743929190612594565b60405180910390fd5b610757838383610d5c565b505050565b610764610df0565b61076e6000610e77565b565b6000600360009054906101000a900473ffffffffffffffffffffffffffffffffffffffff16905090565b600560009054906101000a900473ffffffffffffffffffffffffffffffffffffffff1681565b6107d26107cb610b8d565b8383610f3d565b5050565b6107f5338260ff166001604051806020016040528060008152506110ad565b610822600460009054906101000a900473ffffffffffffffffffffffffffffffffffffffff1660016107c0565b600560009054906101000a900473ffffffffffffffffffffffffffffffffffffffff1673ffffffffffffffffffffffffffffffffffffffff1663507cd30f33600a6040518363ffffffff1660e01b81526004016108809291906126c7565b600060405180830381600087803b15801561089a57600080fd5b505af11580156108ae573d6000803e3d6000fd5b5050505050565b6000600160008473ffffffffffffffffffffffffffffffffffffffff1673ffffffffffffffffffffffffffffffffffffffff16815260200190815260200160002060008373ffffffffffffffffffffffffffffffffffffffff1673ffffffffffffffffffffffffffffffffffffffff16815260200190815260200160002060009054906101000a900460ff16905092915050565b6000610953610b8d565b90508073ffffffffffffffffffffffffffffffffffffffff168673ffffffffffffffffffffffffffffffffffffffff1614158015610998575061099686826108b5565b155b156109dc5780866040517fe237d9220000000000000000000000000000000000000000000000000000000081526004016109d3929190612594565b60405180910390fd5b6109e98686868686611146565b505050505050565b6109f9610df0565b600073ffffffffffffffffffffffffffffffffffffffff168173ffffffffffffffffffffffffffffffffffffffff1603610a6b5760006040517f1e4fbdf7000000000000000000000000000000000000000000000000000000008152600401610a629190612276565b60405180910390fd5b610a7481610e77565b50565b610a7f610b8d565b73ffffffffffffffffffffffffffffffffffffffff168373ffffffffffffffffffffffffffffffffffffffff1614158015610ac85750610ac683610ac1610b8d565b6108b5565b155b15610b1357610ad5610b8d565b836040517fe237d922000000000000000000000000000000000000000000000000000000008152600401610b0a929190612594565b60405180910390fd5b610b1e838383610c8d565b505050565b60007f01ffc9a7000000000000000000000000000000000000000000000000000000007bffffffffffffffffffffffffffffffffffffffffffffffffffffffff1916827bffffffffffffffffffffffffffffffffffffffffffffffffffffffff1916149050919050565b600033905090565b600073ffffffffffffffffffffffffffffffffffffffff168473ffffffffffffffffffffffffffffffffffffffff1603610c075760006040517f57f447ce000000000000000000000000000000000000000000000000000000008152600401610bfe9190612276565b60405180910390fd5b600073ffffffffffffffffffffffffffffffffffffffff168573ffffffffffffffffffffffffffffffffffffffff1603610c795760006040517f01a83514000000000000000000000000000000000000000000000000000000008152600401610c709190612276565b60405180910390fd5b610c868585858585611251565b5050505050565b600073ffffffffffffffffffffffffffffffffffffffff168373ffffffffffffffffffffffffffffffffffffffff1603610cff5760006040517f01a83514000000000000000000000000000000000000000000000000000000008152600401610cf69190612276565b60405180910390fd5b600080610d0c8484611303565b91509150610d2d856000848460405180602001604052806000815250611251565b5050505050565b600060208202602084010151905092915050565b600060208202602084010151905092915050565b600073ffffffffffffffffffffffffffffffffffffffff168373ffffffffffffffffffffffffffffffffffffffff1603610dce5760006040517f01a83514000000000000000000000000000000000000000000000000000000008152600401610dc59190612276565b60405180910390fd5b610deb836000848460405180602001604052806000815250611251565b505050565b610df8610b8d565b73ffffffffffffffffffffffffffffffffffffffff16610e16610770565b73ffffffffffffffffffffffffffffffffffffffff1614610e7557610e39610b8d565b6040517f118cdaa7000000000000000000000000000000000000000000000000000000008152600401610e6c9190612276565b60405180910390fd5b565b6000600360009054906101000a900473ffffffffffffffffffffffffffffffffffffffff16905081600360006101000a81548173ffffffffffffffffffffffffffffffffffffffff021916908373ffffffffffffffffffffffffffffffffffffffff1602179055508173ffffffffffffffffffffffffffffffffffffffff168173ffffffffffffffffffffffffffffffffffffffff167f8be0079c531659141344cd1fd0a4f28419497f9722a3daafe3b4186f6b6457e060405160405180910390a35050565b600073ffffffffffffffffffffffffffffffffffffffff168273ffffffffffffffffffffffffffffffffffffffff1603610faf5760006040517fced3e100000000000000000000000000000000000000000000000000000000008152600401610fa69190612276565b60405180910390fd5b80600160008573ffffffffffffffffffffffffffffffffffffffff1673ffffffffffffffffffffffffffffffffffffffff16815260200190815260200160002060008473ffffffffffffffffffffffffffffffffffffffff1673ffffffffffffffffffffffffffffffffffffffff16815260200190815260200160002060006101000a81548160ff0219169083151502179055508173ffffffffffffffffffffffffffffffffffffffff168373ffffffffffffffffffffffffffffffffffffffff167f17307eab39ab6107e8899845ad3d59bd9653f200f220920489ca2b5937696c31836040516110a09190611bfb565b60405180910390a3505050565b600073ffffffffffffffffffffffffffffffffffffffff168473ffffffffffffffffffffffffffffffffffffffff160361111f5760006040517f57f447ce0000000000000000000000000000000000000000000000000000000081526004016111169190612276565b60405180910390fd5b60008061112c8585611303565b9150915061113e600087848487611251565b505050505050565b600073ffffffffffffffffffffffffffffffffffffffff168473ffffffffffffffffffffffffffffffffffffffff16036111b85760006040517f57f447ce0000000000000000000000000000000000000000000000000000000081526004016111af9190612276565b60405180910390fd5b600073ffffffffffffffffffffffffffffffffffffffff168573ffffffffffffffffffffffffffffffffffffffff160361122a5760006040517f01a835140000000000000000000000000000000000000000000000000000000081526004016112219190612276565b60405180910390fd5b6000806112378585611303565b915091506112488787848487611251565b50505050505050565b61125d85858585611333565b600073ffffffffffffffffffffffffffffffffffffffff168473ffffffffffffffffffffffffffffffffffffffff16146112fc57600061129b610b8d565b905060018451036112eb5760006112bc600086610d4890919063ffffffff16565b905060006112d4600086610d4890919063ffffffff16565b90506112e48389898585896116e1565b50506112fa565b6112f9818787878787611895565b5b505b5050505050565b60608060405191506001825283602083015260408201905060018152826020820152604081016040529250929050565b805182511461137d57815181516040517f5b0599910000000000000000000000000000000000000000000000000000000081526004016113749291906125bd565b60405180910390fd5b6000611387610b8d565b905060005b835181101561159c5760006113aa8286610d4890919063ffffffff16565b905060006113c18386610d4890919063ffffffff16565b9050600073ffffffffffffffffffffffffffffffffffffffff168873ffffffffffffffffffffffffffffffffffffffff16146114ee57600080600084815260200190815260200160002060008a73ffffffffffffffffffffffffffffffffffffffff1673ffffffffffffffffffffffffffffffffffffffff1681526020019081526020016000205490508181101561149657888183856040517f03dee4c500000000000000000000000000000000000000000000000000000000815260040161148d94939291906126f0565b60405180910390fd5b81810360008085815260200190815260200160002060008b73ffffffffffffffffffffffffffffffffffffffff1673ffffffffffffffffffffffffffffffffffffffff16815260200190815260200160002081905550505b600073ffffffffffffffffffffffffffffffffffffffff168773ffffffffffffffffffffffffffffffffffffffff1614611589578060008084815260200190815260200160002060008973ffffffffffffffffffffffffffffffffffffffff1673ffffffffffffffffffffffffffffffffffffffff16815260200190815260200160002060008282546115819190612735565b925050819055505b50508061159590612644565b905061138c565b50600183510361165b5760006115bc600085610d4890919063ffffffff16565b905060006115d4600085610d4890919063ffffffff16565b90508573ffffffffffffffffffffffffffffffffffffffff168773ffffffffffffffffffffffffffffffffffffffff168473ffffffffffffffffffffffffffffffffffffffff167fc3d58168c5ae7397731d063d5bbf3d657854427343f4c083240f7aacaa2d0f62858560405161164c9291906125bd565b60405180910390a450506116da565b8373ffffffffffffffffffffffffffffffffffffffff168573ffffffffffffffffffffffffffffffffffffffff168273ffffffffffffffffffffffffffffffffffffffff167f4a39dc06d4c0dbc64b70af90fd698a233a518aa5d07e595d983b8c0526c8f7fb86866040516116d1929190612769565b60405180910390a45b5050505050565b60008473ffffffffffffffffffffffffffffffffffffffff163b111561188d578373ffffffffffffffffffffffffffffffffffffffff1663f23a6e6187878686866040518663ffffffff1660e01b81526004016117429594939291906127f5565b6020604051808303816000875af192505050801561177e57506040513d601f19601f8201168201806040525081019061177b9190612864565b60015b611802573d80600081146117ae576040519150601f19603f3d011682016040523d82523d6000602084013e6117b3565b606091505b5060008151036117fa57846040517f57f447ce0000000000000000000000000000000000000000000000000000000081526004016117f19190612276565b60405180910390fd5b805181602001fd5b63f23a6e6160e01b7bffffffffffffffffffffffffffffffffffffffffffffffffffffffff1916817bffffffffffffffffffffffffffffffffffffffffffffffffffffffff19161461188b57846040517f57f447ce0000000000000000000000000000000000000000000000000000000081526004016118829190612276565b60405180910390fd5b505b505050505050565b60008473ffffffffffffffffffffffffffffffffffffffff163b1115611a41578373ffffffffffffffffffffffffffffffffffffffff1663bc197c8187878686866040518663ffffffff1660e01b81526004016118f6959493929190612891565b6020604051808303816000875af192505050801561193257506040513d601f19601f8201168201806040525081019061192f9190612864565b60015b6119b6573d8060008114611962576040519150601f19603f3d011682016040523d82523d6000602084013e611967565b606091505b5060008151036119ae57846040517f57f447ce0000000000000000000000000000000000000000000000000000000081526004016119a59190612276565b60405180910390fd5b805181602001fd5b63bc197c8160e01b7bffffffffffffffffffffffffffffffffffffffffffffffffffffffff1916817bffffffffffffffffffffffffffffffffffffffffffffffffffffffff191614611a3f57846040517f57f447ce000000000000000000000000000000000000000000000000000000008152600401611a369190612276565b60405180910390fd5b505b505050505050565b6000604051905090565b600080fd5b600080fd5b600073ffffffffffffffffffffffffffffffffffffffff82169050919050565b6000611a8882611a5d565b9050919050565b611a9881611a7d565b8114611aa357600080fd5b50565b600081359050611ab581611a8f565b92915050565b6000819050919050565b611ace81611abb565b8114611ad957600080fd5b50565b600081359050611aeb81611ac5565b92915050565b60008060408385031215611b0857611b07611a53565b5b6000611b1685828601611aa6565b9250506020611b2785828601611adc565b9150509250929050565b611b3a81611abb565b82525050565b6000602082019050611b556000830184611b31565b92915050565b60007fffffffff0000000000000000000000000000000000000000000000000000000082169050919050565b611b9081611b5b565b8114611b9b57600080fd5b50565b600081359050611bad81611b87565b92915050565b600060208284031215611bc957611bc8611a53565b5b6000611bd784828501611b9e565b91505092915050565b60008115159050919050565b611bf581611be0565b82525050565b6000602082019050611c106000830184611bec565b92915050565b600060208284031215611c2c57611c2b611a53565b5b6000611c3a84828501611adc565b91505092915050565b600081519050919050565b600082825260208201905092915050565b60005b83811015611c7d578082015181840152602081019050611c62565b60008484015250505050565b6000601f19601f8301169050919050565b6000611ca582611c43565b611caf8185611c4e565b9350611cbf818560208601611c5f565b611cc881611c89565b840191505092915050565b60006020820190508181036000830152611ced8184611c9a565b905092915050565b600080fd5b7f4e487b7100000000000000000000000000000000000000000000000000000000600052604160045260246000fd5b611d3282611c89565b810181811067ffffffffffffffff82111715611d5157611d50611cfa565b5b80604052505050565b6000611d64611a49565b9050611d708282611d29565b919050565b600067ffffffffffffffff821115611d9057611d8f611cfa565b5b602082029050602081019050919050565b600080fd5b6000611db9611db484611d75565b611d5a565b90508083825260208201905060208402830185811115611ddc57611ddb611da1565b5b835b81811015611e055780611df18882611adc565b845260208401935050602081019050611dde565b5050509392505050565b600082601f830112611e2457611e23611cf5565b5b8135611e34848260208601611da6565b91505092915050565b600080fd5b600067ffffffffffffffff821115611e5d57611e5c611cfa565b5b611e6682611c89565b9050602081019050919050565b82818337600083830152505050565b6000611e95611e9084611e42565b611d5a565b905082815260208101848484011115611eb157611eb0611e3d565b5b611ebc848285611e73565b509392505050565b600082601f830112611ed957611ed8611cf5565b5b8135611ee9848260208601611e82565b91505092915050565b600080600080600060a08688031215611f0e57611f0d611a53565b5b6000611f1c88828901611aa6565b9550506020611f2d88828901611aa6565b945050604086013567ffffffffffffffff811115611f4e57611f4d611a58565b5b611f5a88828901611e0f565b935050606086013567ffffffffffffffff811115611f7b57611f7a611a58565b5b611f8788828901611e0f565b925050608086013567ffffffffffffffff811115611fa857611fa7611a58565b5b611fb488828901611ec4565b9150509295509295909350565b600067ffffffffffffffff821115611fdc57611fdb611cfa565b5b602082029050602081019050919050565b6000612000611ffb84611fc1565b611d5a565b9050808382526020820190506020840283018581111561202357612022611da1565b5b835b8181101561204c57806120388882611aa6565b845260208401935050602081019050612025565b5050509392505050565b600082601f83011261206b5761206a611cf5565b5b813561207b848260208601611fed565b91505092915050565b6000806040838503121561209b5761209a611a53565b5b600083013567ffffffffffffffff8111156120b9576120b8611a58565b5b6120c585828601612056565b925050602083013567ffffffffffffffff8111156120e6576120e5611a58565b5b6120f285828601611e0f565b9150509250929050565b600081519050919050565b600082825260208201905092915050565b6000819050602082019050919050565b61213181611abb565b82525050565b60006121438383612128565b60208301905092915050565b6000602082019050919050565b6000612167826120fc565b6121718185612107565b935061217c83612118565b8060005b838110156121ad5781516121948882612137565b975061219f8361214f565b925050600181019050612180565b5085935050505092915050565b600060208201905081810360008301526121d4818461215c565b905092915050565b6000806000606084860312156121f5576121f4611a53565b5b600061220386828701611aa6565b935050602084013567ffffffffffffffff81111561222457612223611a58565b5b61223086828701611e0f565b925050604084013567ffffffffffffffff81111561225157612250611a58565b5b61225d86828701611e0f565b9150509250925092565b61227081611a7d565b82525050565b600060208201905061228b6000830184612267565b92915050565b6000819050919050565b60006122b66122b16122ac84611a5d565b612291565b611a5d565b9050919050565b60006122c88261229b565b9050919050565b60006122da826122bd565b9050919050565b6122ea816122cf565b82525050565b600060208201905061230560008301846122e1565b92915050565b61231481611be0565b811461231f57600080fd5b50565b6000813590506123318161230b565b92915050565b6000806040838503121561234e5761234d611a53565b5b600061235c85828601611aa6565b925050602061236d85828601612322565b9150509250929050565b600060ff82169050919050565b61238d81612377565b811461239857600080fd5b50565b6000813590506123aa81612384565b92915050565b6000602082840312156123c6576123c5611a53565b5b60006123d48482850161239b565b91505092915050565b600080604083850312156123f4576123f3611a53565b5b600061240285828601611aa6565b925050602061241385828601611aa6565b9150509250929050565b600080600080600060a0868803121561243957612438611a53565b5b600061244788828901611aa6565b955050602061245888828901611aa6565b945050604061246988828901611adc565b935050606061247a88828901611adc565b925050608086013567ffffffffffffffff81111561249b5761249a611a58565b5b6124a788828901611ec4565b9150509295509295909350565b6000602082840312156124ca576124c9611a53565b5b60006124d884828501611aa6565b91505092915050565b6000806000606084860312156124fa576124f9611a53565b5b600061250886828701611aa6565b935050602061251986828701611adc565b925050604061252a86828701611adc565b9150509250925092565b7f4e487b7100000000000000000000000000000000000000000000000000000000600052602260045260246000fd5b6000600282049050600182168061257b57607f821691505b60208210810361258e5761258d612534565b5b50919050565b60006040820190506125a96000830185612267565b6125b66020830184612267565b9392505050565b60006040820190506125d26000830185611b31565b6125df6020830184611b31565b9392505050565b7f4e487b7100000000000000000000000000000000000000000000000000000000600052603260045260246000fd5b7f4e487b7100000000000000000000000000000000000000000000000000000000600052601160045260246000fd5b600061264f82611abb565b91507fffffffffffffffffffffffffffffffffffffffffffffffffffffffffffffffff820361268157612680612615565b5b600182019050919050565b6000819050919050565b60006126b16126ac6126a78461268c565b612291565b611abb565b9050919050565b6126c181612696565b82525050565b60006040820190506126dc6000830185612267565b6126e960208301846126b8565b9392505050565b60006080820190506127056000830187612267565b6127126020830186611b31565b61271f6040830185611b31565b61272c6060830184611b31565b95945050505050565b600061274082611abb565b915061274b83611abb565b925082820190508082111561276357612762612615565b5b92915050565b60006040820190508181036000830152612783818561215c565b90508181036020830152612797818461215c565b90509392505050565b600081519050919050565b600082825260208201905092915050565b60006127c7826127a0565b6127d181856127ab565b93506127e1818560208601611c5f565b6127ea81611c89565b840191505092915050565b600060a08201905061280a6000830188612267565b6128176020830187612267565b6128246040830186611b31565b6128316060830185611b31565b818103608083015261284381846127bc565b90509695505050505050565b60008151905061285e81611b87565b92915050565b60006020828403121561287a57612879611a53565b5b60006128888482850161284f565b91505092915050565b600060a0820190506128a66000830188612267565b6128b36020830187612267565b81810360408301526128c5818661215c565b905081810360608301526128d9818561215c565b905081810360808301526128ed81846127bc565b9050969550505050505056fea2646970667358221220978062d79694bbea6d3e0f62c950a93c4bd4e5cb75d0ae9f3a48e1a3d9c7141c64736f6c6343000814003368747470733a2f2f706f6b656d6f6e2d7073692d74776f2e76657263656c2e6170702f6170692f6d657461646174612f62616c6c732f7b69647d",
  "devdoc": {
    "errors": {
      "ERC1155InsufficientBalance(address,uint256,uint256,uint256)": [
        {
          "details": "Indicates an error related to the current `balance` of a `sender`. Used in transfers.",
          "params": {
            "balance": "Current balance for the interacting account.",
            "needed": "Minimum amount required to perform a transfer.",
            "sender": "Address whose tokens are being transferred.",
            "tokenId": "Identifier number of a token."
          }
        }
      ],
      "ERC1155InvalidApprover(address)": [
        {
          "details": "Indicates a failure with the `approver` of a token to be approved. Used in approvals.",
          "params": {
            "approver": "Address initiating an approval operation."
          }
        }
      ],
      "ERC1155InvalidArrayLength(uint256,uint256)": [
        {
          "details": "Indicates an array length mismatch between ids and values in a safeBatchTransferFrom operation. Used in batch transfers.",
          "params": {
            "idsLength": "Length of the array of token identifiers",
            "valuesLength": "Length of the array of token amounts"
          }
        }
      ],
      "ERC1155InvalidOperator(address)": [
        {
          "details": "Indicates a failure with the `operator` to be approved. Used in approvals.",
          "params": {
            "operator": "Address that may be allowed to operate on tokens without being their owner."
          }
        }
      ],
      "ERC1155InvalidReceiver(address)": [
        {
          "details": "Indicates a failure with the token `receiver`. Used in transfers.",
          "params": {
            "receiver": "Address to which tokens are being transferred."
          }
        }
      ],
      "ERC1155InvalidSender(address)": [
        {
          "details": "Indicates a failure with the token `sender`. Used in transfers.",
          "params": {
            "sender": "Address whose tokens are being transferred."
          }
        }
      ],
      "ERC1155MissingApprovalForAll(address,address)": [
        {
          "details": "Indicates a failure with the `operator`s approval. Used in transfers.",
          "params": {
            "operator": "Address that may be allowed to operate on tokens without being their owner.",
            "owner": "Address of the current owner of a token."
          }
        }
      ],
      "OwnableInvalidOwner(address)": [
        {
          "details": "The owner is not a valid owner account. (eg. `address(0)`)"
        }
      ],
      "OwnableUnauthorizedAccount(address)": [
        {
          "details": "The caller account is not authorized to perform an operation."
        }
      ]
    },
    "events": {
      "ApprovalForAll(address,address,bool)": {
        "details": "Emitted when `account` grants or revokes permission to `operator` to transfer their tokens, according to `approved`."
      },
      "TransferBatch(address,address,address,uint256[],uint256[])": {
        "details": "Equivalent to multiple {TransferSingle} events, where `operator`, `from` and `to` are the same for all transfers."
      },
      "TransferSingle(address,address,address,uint256,uint256)": {
        "details": "Emitted when `value` amount of tokens of type `id` are transferred from `from` to `to` by `operator`."
      },
      "URI(string,uint256)": {
        "details": "Emitted when the URI for token type `id` changes to `value`, if it is a non-programmatic URI. If an {URI} event was emitted for `id`, the standard https://eips.ethereum.org/EIPS/eip-1155#metadata-extensions[guarantees] that `value` will equal the value returned by {IERC1155MetadataURI-uri}."
      }
    },
    "kind": "dev",
    "methods": {
      "balanceOf(address,uint256)": {
        "details": "See {IERC1155-balanceOf}."
      },
      "balanceOfBatch(address[],uint256[])": {
        "details": "See {IERC1155-balanceOfBatch}. Requirements: - `accounts` and `ids` must have the same length."
      },
      "isApprovedForAll(address,address)": {
        "details": "See {IERC1155-isApprovedForAll}."
      },
      "owner()": {
        "details": "Returns the address of the current owner."
      },
      "renounceOwnership()": {
        "details": "Leaves the contract without owner. It will not be possible to call `onlyOwner` functions. Can only be called by the current owner. NOTE: Renouncing ownership will leave the contract without an owner, thereby disabling any functionality that is only available to the owner."
      },
      "safeBatchTransferFrom(address,address,uint256[],uint256[],bytes)": {
        "details": "See {IERC1155-safeBatchTransferFrom}."
      },
      "safeTransferFrom(address,address,uint256,uint256,bytes)": {
        "details": "See {IERC1155-safeTransferFrom}."
      },
      "setApprovalForAll(address,bool)": {
        "details": "See {IERC1155-setApprovalForAll}."
      },
      "supportsInterface(bytes4)": {
        "details": "See {IERC165-supportsInterface}."
      },
      "transferOwnership(address)": {
        "details": "Transfers ownership of the contract to a new account (`newOwner`). Can only be called by the current owner."
      },
      "uri(uint256)": {
        "details": "See {IERC1155MetadataURI-uri}. This implementation returns the same URI for *all* token types. It relies on the token type ID substitution mechanism https://eips.ethereum.org/EIPS/eip-1155#metadata[defined in the EIP]. Clients calling this function must replace the `\\{id\\}` substring with the actual token type ID."
      }
    },
    "version": 1
  },
  "userdoc": {
    "kind": "user",
    "methods": {},
    "version": 1
  },
  "storageLayout": {
    "storage": [
      {
        "astId": 358,
        "contract": "src/contracts/PokieBall.sol:PoxieBall",
        "label": "_balances",
        "offset": 0,
        "slot": "0",
        "type": "t_mapping(t_uint256,t_mapping(t_address,t_uint256))"
      },
      {
        "astId": 364,
        "contract": "src/contracts/PokieBall.sol:PoxieBall",
        "label": "_operatorApprovals",
        "offset": 0,
        "slot": "1",
        "type": "t_mapping(t_address,t_mapping(t_address,t_bool))"
      },
      {
        "astId": 366,
        "contract": "src/contracts/PokieBall.sol:PoxieBall",
        "label": "_uri",
        "offset": 0,
        "slot": "2",
        "type": "t_string_storage"
      },
      {
        "astId": 8,
        "contract": "src/contracts/PokieBall.sol:PoxieBall",
        "label": "_owner",
        "offset": 0,
        "slot": "3",
        "type": "t_address"
      },
      {
        "astId": 5461,
        "contract": "src/contracts/PokieBall.sol:PoxieBall",
        "label": "contractAddress",
        "offset": 0,
        "slot": "4",
        "type": "t_address"
      },
      {
        "astId": 5464,
        "contract": "src/contracts/PokieBall.sol:PoxieBall",
        "label": "poxieID",
        "offset": 0,
        "slot": "5",
        "type": "t_contract(PoxieID)5930"
      }
    ],
    "types": {
      "t_address": {
        "encoding": "inplace",
        "label": "address",
        "numberOfBytes": "20"
      },
      "t_bool": {
        "encoding": "inplace",
        "label": "bool",
        "numberOfBytes": "1"
      },
      "t_contract(PoxieID)5930": {
        "encoding": "inplace",
        "label": "contract PoxieID",
        "numberOfBytes": "20"
      },
      "t_mapping(t_address,t_bool)": {
        "encoding": "mapping",
        "key": "t_address",
        "label": "mapping(address => bool)",
        "numberOfBytes": "32",
        "value": "t_bool"
      },
      "t_mapping(t_address,t_mapping(t_address,t_bool))": {
        "encoding": "mapping",
        "key": "t_address",
        "label": "mapping(address => mapping(address => bool))",
        "numberOfBytes": "32",
        "value": "t_mapping(t_address,t_bool)"
      },
      "t_mapping(t_address,t_uint256)": {
        "encoding": "mapping",
        "key": "t_address",
        "label": "mapping(address => uint256)",
        "numberOfBytes": "32",
        "value": "t_uint256"
      },
      "t_mapping(t_uint256,t_mapping(t_address,t_uint256))": {
        "encoding": "mapping",
        "key": "t_uint256",
        "label": "mapping(uint256 => mapping(address => uint256))",
        "numberOfBytes": "32",
        "value": "t_mapping(t_address,t_uint256)"
      },
      "t_string_storage": {
        "encoding": "bytes",
        "label": "string",
        "numberOfBytes": "32"
      },
      "t_uint256": {
        "encoding": "inplace",
        "label": "uint256",
        "numberOfBytes": "32"
      }
    }
  }
}