{
  "address": "0x4ADF8385d353D16e410fE3df0196a53e253c2e89",
  "abi": [
    {
      "inputs": [
        {
          "internalType": "address",
          "name": "initialOwner",
          "type": "address"
        },
        {
          "internalType": "address",
          "name": "_tokenAddress",
          "type": "address"
        },
        {
          "internalType": "address",
          "name": "idAddress",
          "type": "address"
        }
      ],
      "stateMutability": "nonpayable",
      "type": "constructor"
    },
    {
      "inputs": [
        {
          "internalType": "address",
          "name": "owner",
          "type": "address"
        }
      ],
      "name": "OwnableInvalidOwner",
      "type": "error"
    },
    {
      "inputs": [
        {
          "internalType": "address",
          "name": "account",
          "type": "address"
        }
      ],
      "name": "OwnableUnauthorizedAccount",
      "type": "error"
    },
    {
      "anonymous": false,
      "inputs": [
        {
          "indexed": true,
          "internalType": "uint256",
          "name": "itemId",
          "type": "uint256"
        },
        {
          "indexed": true,
          "internalType": "address",
          "name": "nftContract",
          "type": "address"
        },
        {
          "indexed": true,
          "internalType": "uint256",
          "name": "tokenId",
          "type": "uint256"
        },
        {
          "indexed": false,
          "internalType": "address",
          "name": "seller",
          "type": "address"
        },
        {
          "indexed": false,
          "internalType": "uint256",
          "name": "price",
          "type": "uint256"
        },
        {
          "indexed": false,
          "internalType": "bool",
          "name": "sold",
          "type": "bool"
        }
      ],
      "name": "MarketItemCreated",
      "type": "event"
    },
    {
      "anonymous": false,
      "inputs": [
        {
          "indexed": true,
          "internalType": "address",
          "name": "previousOwner",
          "type": "address"
        },
        {
          "indexed": true,
          "internalType": "address",
          "name": "newOwner",
          "type": "address"
        }
      ],
      "name": "OwnershipTransferred",
      "type": "event"
    },
    {
      "inputs": [
        {
          "internalType": "address",
          "name": "nftContract",
          "type": "address"
        },
        {
          "internalType": "uint256",
          "name": "tokenId",
          "type": "uint256"
        },
        {
          "internalType": "uint256",
          "name": "price",
          "type": "uint256"
        }
      ],
      "name": "createMarketItem",
      "outputs": [],
      "stateMutability": "nonpayable",
      "type": "function"
    },
    {
      "inputs": [
        {
          "internalType": "address",
          "name": "nftContract",
          "type": "address"
        },
        {
          "internalType": "uint256",
          "name": "itemId",
          "type": "uint256"
        }
      ],
      "name": "createMarketSale",
      "outputs": [],
      "stateMutability": "nonpayable",
      "type": "function"
    },
    {
      "inputs": [],
      "name": "fetchMarketItems",
      "outputs": [
        {
          "components": [
            {
              "internalType": "uint256",
              "name": "itemId",
              "type": "uint256"
            },
            {
              "internalType": "address",
              "name": "nftContract",
              "type": "address"
            },
            {
              "internalType": "uint256",
              "name": "tokenId",
              "type": "uint256"
            },
            {
              "internalType": "address",
              "name": "seller",
              "type": "address"
            },
            {
              "internalType": "uint256",
              "name": "price",
              "type": "uint256"
            },
            {
              "internalType": "bool",
              "name": "sold",
              "type": "bool"
            }
          ],
          "internalType": "struct PoxieMarketplace.MarketItem[]",
          "name": "",
          "type": "tuple[]"
        }
      ],
      "stateMutability": "view",
      "type": "function"
    },
    {
      "inputs": [],
      "name": "getListingPrice",
      "outputs": [
        {
          "internalType": "uint256",
          "name": "",
          "type": "uint256"
        }
      ],
      "stateMutability": "view",
      "type": "function"
    },
    {
      "inputs": [
        {
          "internalType": "address",
          "name": "",
          "type": "address"
        },
        {
          "internalType": "address",
          "name": "",
          "type": "address"
        },
        {
          "internalType": "uint256[]",
          "name": "",
          "type": "uint256[]"
        },
        {
          "internalType": "uint256[]",
          "name": "",
          "type": "uint256[]"
        },
        {
          "internalType": "bytes",
          "name": "",
          "type": "bytes"
        }
      ],
      "name": "onERC1155BatchReceived",
      "outputs": [
        {
          "internalType": "bytes4",
          "name": "",
          "type": "bytes4"
        }
      ],
      "stateMutability": "nonpayable",
      "type": "function"
    },
    {
      "inputs": [
        {
          "internalType": "address",
          "name": "",
          "type": "address"
        },
        {
          "internalType": "address",
          "name": "",
          "type": "address"
        },
        {
          "internalType": "uint256",
          "name": "",
          "type": "uint256"
        },
        {
          "internalType": "uint256",
          "name": "",
          "type": "uint256"
        },
        {
          "internalType": "bytes",
          "name": "",
          "type": "bytes"
        }
      ],
      "name": "onERC1155Received",
      "outputs": [
        {
          "internalType": "bytes4",
          "name": "",
          "type": "bytes4"
        }
      ],
      "stateMutability": "nonpayable",
      "type": "function"
    },
    {
      "inputs": [],
      "name": "owner",
      "outputs": [
        {
          "internalType": "address",
          "name": "",
          "type": "address"
        }
      ],
      "stateMutability": "view",
      "type": "function"
    },
    {
      "inputs": [],
      "name": "poxieID",
      "outputs": [
        {
          "internalType": "contract PoxieID",
          "name": "",
          "type": "address"
        }
      ],
      "stateMutability": "view",
      "type": "function"
    },
    {
      "inputs": [],
      "name": "renounceOwnership",
      "outputs": [],
      "stateMutability": "nonpayable",
      "type": "function"
    },
    {
      "inputs": [],
      "name": "tokenAddress",
      "outputs": [
        {
          "internalType": "contract IERC20",
          "name": "",
          "type": "address"
        }
      ],
      "stateMutability": "view",
      "type": "function"
    },
    {
      "inputs": [
        {
          "internalType": "address",
          "name": "newOwner",
          "type": "address"
        }
      ],
      "name": "transferOwnership",
      "outputs": [],
      "stateMutability": "nonpayable",
      "type": "function"
    }
  ],
  "transactionHash": "0xff9960d3ba401af2b0ac5f91e2f75a2907070d7fcdcd030d3b7f91b8918dd13a",
  "args": [
    "0xa4ffee15dc0930eca8e0bac4ed0087db149a682a",
    "0x69f44cb68352f1727FA6120e1b03a3d64EF8C279",
    "0xCb9FD0aDE8Be6Cb7d094473189a7AF39986Fd0BF"
  ],
  "numDeployments": 1,
  "solcInputHash": "2eea4c037f70eb0afee90289e20635a7",
  "bytecode": "0x608060405266038d7ea4c680006005553480156200001c57600080fd5b5060405162001a7638038062001a76833981810160405281019062000042919062000283565b82600073ffffffffffffffffffffffffffffffffffffffff168173ffffffffffffffffffffffffffffffffffffffff1603620000b85760006040517f1e4fbdf7000000000000000000000000000000000000000000000000000000008152600401620000af9190620002f0565b60405180910390fd5b620000c9816200015560201b60201c565b5081600360006101000a81548173ffffffffffffffffffffffffffffffffffffffff021916908373ffffffffffffffffffffffffffffffffffffffff16021790555080600460006101000a81548173ffffffffffffffffffffffffffffffffffffffff021916908373ffffffffffffffffffffffffffffffffffffffff1602179055505050506200030d565b60008060009054906101000a900473ffffffffffffffffffffffffffffffffffffffff169050816000806101000a81548173ffffffffffffffffffffffffffffffffffffffff021916908373ffffffffffffffffffffffffffffffffffffffff1602179055508173ffffffffffffffffffffffffffffffffffffffff168173ffffffffffffffffffffffffffffffffffffffff167f8be0079c531659141344cd1fd0a4f28419497f9722a3daafe3b4186f6b6457e060405160405180910390a35050565b600080fd5b600073ffffffffffffffffffffffffffffffffffffffff82169050919050565b60006200024b826200021e565b9050919050565b6200025d816200023e565b81146200026957600080fd5b50565b6000815190506200027d8162000252565b92915050565b6000806000606084860312156200029f576200029e62000219565b5b6000620002af868287016200026c565b9350506020620002c2868287016200026c565b9250506040620002d5868287016200026c565b9150509250925092565b620002ea816200023e565b82525050565b6000602082019050620003076000830184620002df565b92915050565b611759806200031d6000396000f3fe608060405234801561001057600080fd5b50600436106100a95760003560e01c80638fd83cc7116100715780638fd83cc71461012e5780639d76ea581461014c578063bc197c811461016a578063c23b139e1461019a578063f23a6e61146101b6578063f2fde38b146101e6576100a9565b80630f08efe0146100ae57806312e85585146100cc57806358eb2df5146100ea578063715018a6146101065780638da5cb5b14610110575b600080fd5b6100b6610202565b6040516100c39190610def565b60405180910390f35b6100d461043b565b6040516100e19190610e20565b60405180910390f35b61010460048036038101906100ff9190610ea7565b610445565b005b61010e610700565b005b610118610714565b6040516101259190610f09565b60405180910390f35b61013661073d565b6040516101439190610f83565b60405180910390f35b610154610763565b6040516101619190610fbf565b60405180910390f35b610184600480360381019061017f91906111e8565b610789565b60405161019191906112f2565b60405180910390f35b6101b460048036038101906101af919061130d565b61079e565b005b6101d060048036038101906101cb919061134d565b6109fe565b6040516101dd91906112f2565b60405180910390f35b61020060048036038101906101fb91906113e4565b610a13565b005b606060006001549050600060025460015461021d9190611440565b90506000808267ffffffffffffffff81111561023c5761023b610ff0565b5b60405190808252806020026020018201604052801561027557816020015b610262610bec565b81526020019060019003908161025a5790505b50905060005b848110156104305760001515600660006001846102989190611474565b815260200190815260200160002060050160009054906101000a900460ff1615150361041d576000600660006001846102d19190611474565b81526020019081526020016000206000015490506000600660008381526020019081526020016000209050806040518060c0016040529081600082015481526020016001820160009054906101000a900473ffffffffffffffffffffffffffffffffffffffff1673ffffffffffffffffffffffffffffffffffffffff1673ffffffffffffffffffffffffffffffffffffffff168152602001600282015481526020016003820160009054906101000a900473ffffffffffffffffffffffffffffffffffffffff1673ffffffffffffffffffffffffffffffffffffffff1673ffffffffffffffffffffffffffffffffffffffff168152602001600482015481526020016005820160009054906101000a900460ff161515151581525050848681518110610400576103ff6114a8565b5b60200260200101819052506001856104189190611474565b945050505b8080610428906114d7565b91505061027b565b508094505050505090565b6000600554905090565b60018060008282546104579190611474565b92505081905550600060015490506040518060c001604052808281526020018573ffffffffffffffffffffffffffffffffffffffff1681526020018481526020013373ffffffffffffffffffffffffffffffffffffffff16815260200183815260200160001515815250600660008381526020019081526020016000206000820151816000015560208201518160010160006101000a81548173ffffffffffffffffffffffffffffffffffffffff021916908373ffffffffffffffffffffffffffffffffffffffff1602179055506040820151816002015560608201518160030160006101000a81548173ffffffffffffffffffffffffffffffffffffffff021916908373ffffffffffffffffffffffffffffffffffffffff1602179055506080820151816004015560a08201518160050160006101000a81548160ff021916908315150217905550905050600460009054906101000a900473ffffffffffffffffffffffffffffffffffffffff1673ffffffffffffffffffffffffffffffffffffffff1663507cd30f3360196040518363ffffffff1660e01b815260040161060192919061155a565b600060405180830381600087803b15801561061b57600080fd5b505af115801561062f573d6000803e3d6000fd5b505050508373ffffffffffffffffffffffffffffffffffffffff1663f242432a33308660016040518563ffffffff1660e01b815260040161067394939291906115f5565b600060405180830381600087803b15801561068d57600080fd5b505af11580156106a1573d6000803e3d6000fd5b50505050828473ffffffffffffffffffffffffffffffffffffffff16827f3a703684ac0e06cbc245a465cb3c43faf40a53aff175518595f6aac9d61afe63338660006040516106f29392919061165c565b60405180910390a450505050565b610708610a99565b6107126000610b20565b565b60008060009054906101000a900473ffffffffffffffffffffffffffffffffffffffff16905090565b600460009054906101000a900473ffffffffffffffffffffffffffffffffffffffff1681565b600360009054906101000a900473ffffffffffffffffffffffffffffffffffffffff1681565b600063bc197c8160e01b905095945050505050565b600060066000838152602001908152602001600020600401549050600060066000848152602001908152602001600020600201549050600360009054906101000a900473ffffffffffffffffffffffffffffffffffffffff1673ffffffffffffffffffffffffffffffffffffffff166323b872dd336006600087815260200190815260200160002060030160009054906101000a900473ffffffffffffffffffffffffffffffffffffffff16856040518463ffffffff1660e01b815260040161086993929190611693565b6020604051808303816000875af1158015610888573d6000803e3d6000fd5b505050506040513d601f19601f820116820180604052508101906108ac91906116f6565b50600460009054906101000a900473ffffffffffffffffffffffffffffffffffffffff1673ffffffffffffffffffffffffffffffffffffffff1663507cd30f3360196040518363ffffffff1660e01b815260040161090b92919061155a565b600060405180830381600087803b15801561092557600080fd5b505af1158015610939573d6000803e3d6000fd5b505050508373ffffffffffffffffffffffffffffffffffffffff1663f242432a30338460016040518563ffffffff1660e01b815260040161097d94939291906115f5565b600060405180830381600087803b15801561099757600080fd5b505af11580156109ab573d6000803e3d6000fd5b5050505060016006600085815260200190815260200160002060050160006101000a81548160ff0219169083151502179055506001600260008282546109f19190611474565b9250508190555050505050565b600063f23a6e6160e01b905095945050505050565b610a1b610a99565b600073ffffffffffffffffffffffffffffffffffffffff168173ffffffffffffffffffffffffffffffffffffffff1603610a8d5760006040517f1e4fbdf7000000000000000000000000000000000000000000000000000000008152600401610a849190610f09565b60405180910390fd5b610a9681610b20565b50565b610aa1610be4565b73ffffffffffffffffffffffffffffffffffffffff16610abf610714565b73ffffffffffffffffffffffffffffffffffffffff1614610b1e57610ae2610be4565b6040517f118cdaa7000000000000000000000000000000000000000000000000000000008152600401610b159190610f09565b60405180910390fd5b565b60008060009054906101000a900473ffffffffffffffffffffffffffffffffffffffff169050816000806101000a81548173ffffffffffffffffffffffffffffffffffffffff021916908373ffffffffffffffffffffffffffffffffffffffff1602179055508173ffffffffffffffffffffffffffffffffffffffff168173ffffffffffffffffffffffffffffffffffffffff167f8be0079c531659141344cd1fd0a4f28419497f9722a3daafe3b4186f6b6457e060405160405180910390a35050565b600033905090565b6040518060c0016040528060008152602001600073ffffffffffffffffffffffffffffffffffffffff16815260200160008152602001600073ffffffffffffffffffffffffffffffffffffffff168152602001600081526020016000151581525090565b600081519050919050565b600082825260208201905092915050565b6000819050602082019050919050565b6000819050919050565b610c8f81610c7c565b82525050565b600073ffffffffffffffffffffffffffffffffffffffff82169050919050565b6000610cc082610c95565b9050919050565b610cd081610cb5565b82525050565b60008115159050919050565b610ceb81610cd6565b82525050565b60c082016000820151610d076000850182610c86565b506020820151610d1a6020850182610cc7565b506040820151610d2d6040850182610c86565b506060820151610d406060850182610cc7565b506080820151610d536080850182610c86565b5060a0820151610d6660a0850182610ce2565b50505050565b6000610d788383610cf1565b60c08301905092915050565b6000602082019050919050565b6000610d9c82610c50565b610da68185610c5b565b9350610db183610c6c565b8060005b83811015610de2578151610dc98882610d6c565b9750610dd483610d84565b925050600181019050610db5565b5085935050505092915050565b60006020820190508181036000830152610e098184610d91565b905092915050565b610e1a81610c7c565b82525050565b6000602082019050610e356000830184610e11565b92915050565b6000604051905090565b600080fd5b600080fd5b610e5881610cb5565b8114610e6357600080fd5b50565b600081359050610e7581610e4f565b92915050565b610e8481610c7c565b8114610e8f57600080fd5b50565b600081359050610ea181610e7b565b92915050565b600080600060608486031215610ec057610ebf610e45565b5b6000610ece86828701610e66565b9350506020610edf86828701610e92565b9250506040610ef086828701610e92565b9150509250925092565b610f0381610cb5565b82525050565b6000602082019050610f1e6000830184610efa565b92915050565b6000819050919050565b6000610f49610f44610f3f84610c95565b610f24565b610c95565b9050919050565b6000610f5b82610f2e565b9050919050565b6000610f6d82610f50565b9050919050565b610f7d81610f62565b82525050565b6000602082019050610f986000830184610f74565b92915050565b6000610fa982610f50565b9050919050565b610fb981610f9e565b82525050565b6000602082019050610fd46000830184610fb0565b92915050565b600080fd5b6000601f19601f8301169050919050565b7f4e487b7100000000000000000000000000000000000000000000000000000000600052604160045260246000fd5b61102882610fdf565b810181811067ffffffffffffffff8211171561104757611046610ff0565b5b80604052505050565b600061105a610e3b565b9050611066828261101f565b919050565b600067ffffffffffffffff82111561108657611085610ff0565b5b602082029050602081019050919050565b600080fd5b60006110af6110aa8461106b565b611050565b905080838252602082019050602084028301858111156110d2576110d1611097565b5b835b818110156110fb57806110e78882610e92565b8452602084019350506020810190506110d4565b5050509392505050565b600082601f83011261111a57611119610fda565b5b813561112a84826020860161109c565b91505092915050565b600080fd5b600067ffffffffffffffff82111561115357611152610ff0565b5b61115c82610fdf565b9050602081019050919050565b82818337600083830152505050565b600061118b61118684611138565b611050565b9050828152602081018484840111156111a7576111a6611133565b5b6111b2848285611169565b509392505050565b600082601f8301126111cf576111ce610fda565b5b81356111df848260208601611178565b91505092915050565b600080600080600060a0868803121561120457611203610e45565b5b600061121288828901610e66565b955050602061122388828901610e66565b945050604086013567ffffffffffffffff81111561124457611243610e4a565b5b61125088828901611105565b935050606086013567ffffffffffffffff81111561127157611270610e4a565b5b61127d88828901611105565b925050608086013567ffffffffffffffff81111561129e5761129d610e4a565b5b6112aa888289016111ba565b9150509295509295909350565b60007fffffffff0000000000000000000000000000000000000000000000000000000082169050919050565b6112ec816112b7565b82525050565b600060208201905061130760008301846112e3565b92915050565b6000806040838503121561132457611323610e45565b5b600061133285828601610e66565b925050602061134385828601610e92565b9150509250929050565b600080600080600060a0868803121561136957611368610e45565b5b600061137788828901610e66565b955050602061138888828901610e66565b945050604061139988828901610e92565b93505060606113aa88828901610e92565b925050608086013567ffffffffffffffff8111156113cb576113ca610e4a565b5b6113d7888289016111ba565b9150509295509295909350565b6000602082840312156113fa576113f9610e45565b5b600061140884828501610e66565b91505092915050565b7f4e487b7100000000000000000000000000000000000000000000000000000000600052601160045260246000fd5b600061144b82610c7c565b915061145683610c7c565b925082820390508181111561146e5761146d611411565b5b92915050565b600061147f82610c7c565b915061148a83610c7c565b92508282019050808211156114a2576114a1611411565b5b92915050565b7f4e487b7100000000000000000000000000000000000000000000000000000000600052603260045260246000fd5b60006114e282610c7c565b91507fffffffffffffffffffffffffffffffffffffffffffffffffffffffffffffffff820361151457611513611411565b5b600182019050919050565b6000819050919050565b600061154461153f61153a8461151f565b610f24565b610c7c565b9050919050565b61155481611529565b82525050565b600060408201905061156f6000830185610efa565b61157c602083018461154b565b9392505050565b6000819050919050565b60006115a86115a361159e84611583565b610f24565b610c7c565b9050919050565b6115b88161158d565b82525050565b600082825260208201905092915050565b50565b60006115df6000836115be565b91506115ea826115cf565b600082019050919050565b600060a08201905061160a6000830187610efa565b6116176020830186610efa565b6116246040830185610e11565b61163160608301846115af565b8181036080830152611642816115d2565b905095945050505050565b61165681610cd6565b82525050565b60006060820190506116716000830186610efa565b61167e6020830185610e11565b61168b604083018461164d565b949350505050565b60006060820190506116a86000830186610efa565b6116b56020830185610efa565b6116c26040830184610e11565b949350505050565b6116d381610cd6565b81146116de57600080fd5b50565b6000815190506116f0816116ca565b92915050565b60006020828403121561170c5761170b610e45565b5b600061171a848285016116e1565b9150509291505056fea2646970667358221220a69290b3ad3d99524d84626dbcbf848f31f4c86709d21de8abdaabd339796f7564736f6c63430008140033",
  "devdoc": {
    "errors": {
      "OwnableInvalidOwner(address)": [
        {
          "details": "The owner is not a valid owner account. (eg. `address(0)`)"
        }
      ],
      "OwnableUnauthorizedAccount(address)": [
        {
          "details": "The caller account is not authorized to perform an operation."
        }
      ]
    },
    "kind": "dev",
    "methods": {
      "owner()": {
        "details": "Returns the address of the current owner."
      },
      "renounceOwnership()": {
        "details": "Leaves the contract without owner. It will not be possible to call `onlyOwner` functions. Can only be called by the current owner. NOTE: Renouncing ownership will leave the contract without an owner, thereby disabling any functionality that is only available to the owner."
      },
      "transferOwnership(address)": {
        "details": "Transfers ownership of the contract to a new account (`newOwner`). Can only be called by the current owner."
      }
    },
    "version": 1
  },
  "userdoc": {
    "kind": "user",
    "methods": {},
    "version": 1
  },
  "storageLayout": {
    "storage": [
      {
        "astId": 8,
        "contract": "src/contracts/PoxieMarketplace.sol:PoxieMarketplace",
        "label": "_owner",
        "offset": 0,
        "slot": "0",
        "type": "t_address"
      },
      {
        "astId": 5940,
        "contract": "src/contracts/PoxieMarketplace.sol:PoxieMarketplace",
        "label": "_itemIds",
        "offset": 0,
        "slot": "1",
        "type": "t_uint256"
      },
      {
        "astId": 5942,
        "contract": "src/contracts/PoxieMarketplace.sol:PoxieMarketplace",
        "label": "_itemsSold",
        "offset": 0,
        "slot": "2",
        "type": "t_uint256"
      },
      {
        "astId": 5945,
        "contract": "src/contracts/PoxieMarketplace.sol:PoxieMarketplace",
        "label": "tokenAddress",
        "offset": 0,
        "slot": "3",
        "type": "t_contract(IERC20)2302"
      },
      {
        "astId": 5948,
        "contract": "src/contracts/PoxieMarketplace.sol:PoxieMarketplace",
        "label": "poxieID",
        "offset": 0,
        "slot": "4",
        "type": "t_contract(PoxieID)5930"
      },
      {
        "astId": 5951,
        "contract": "src/contracts/PoxieMarketplace.sol:PoxieMarketplace",
        "label": "listingPrice",
        "offset": 0,
        "slot": "5",
        "type": "t_uint256"
      },
      {
        "astId": 5994,
        "contract": "src/contracts/PoxieMarketplace.sol:PoxieMarketplace",
        "label": "idToMarketItem",
        "offset": 0,
        "slot": "6",
        "type": "t_mapping(t_uint256,t_struct(MarketItem)5989_storage)"
      }
    ],
    "types": {
      "t_address": {
        "encoding": "inplace",
        "label": "address",
        "numberOfBytes": "20"
      },
      "t_bool": {
        "encoding": "inplace",
        "label": "bool",
        "numberOfBytes": "1"
      },
      "t_contract(IERC20)2302": {
        "encoding": "inplace",
        "label": "contract IERC20",
        "numberOfBytes": "20"
      },
      "t_contract(PoxieID)5930": {
        "encoding": "inplace",
        "label": "contract PoxieID",
        "numberOfBytes": "20"
      },
      "t_mapping(t_uint256,t_struct(MarketItem)5989_storage)": {
        "encoding": "mapping",
        "key": "t_uint256",
        "label": "mapping(uint256 => struct PoxieMarketplace.MarketItem)",
        "numberOfBytes": "32",
        "value": "t_struct(MarketItem)5989_storage"
      },
      "t_struct(MarketItem)5989_storage": {
        "encoding": "inplace",
        "label": "struct PoxieMarketplace.MarketItem",
        "members": [
          {
            "astId": 5978,
            "contract": "src/contracts/PoxieMarketplace.sol:PoxieMarketplace",
            "label": "itemId",
            "offset": 0,
            "slot": "0",
            "type": "t_uint256"
          },
          {
            "astId": 5980,
            "contract": "src/contracts/PoxieMarketplace.sol:PoxieMarketplace",
            "label": "nftContract",
            "offset": 0,
            "slot": "1",
            "type": "t_address"
          },
          {
            "astId": 5982,
            "contract": "src/contracts/PoxieMarketplace.sol:PoxieMarketplace",
            "label": "tokenId",
            "offset": 0,
            "slot": "2",
            "type": "t_uint256"
          },
          {
            "astId": 5984,
            "contract": "src/contracts/PoxieMarketplace.sol:PoxieMarketplace",
            "label": "seller",
            "offset": 0,
            "slot": "3",
            "type": "t_address"
          },
          {
            "astId": 5986,
            "contract": "src/contracts/PoxieMarketplace.sol:PoxieMarketplace",
            "label": "price",
            "offset": 0,
            "slot": "4",
            "type": "t_uint256"
          },
          {
            "astId": 5988,
            "contract": "src/contracts/PoxieMarketplace.sol:PoxieMarketplace",
            "label": "sold",
            "offset": 0,
            "slot": "5",
            "type": "t_bool"
          }
        ],
        "numberOfBytes": "192"
      },
      "t_uint256": {
        "encoding": "inplace",
        "label": "uint256",
        "numberOfBytes": "32"
      }
    }
  }
}